:020000040800F2
:100000000040002075740008BD740008BD7400082D
:10001000BD740008BD740008BD7400080000000035
:10002000000000000000000000000000BD74000897
:10003000BD74000800000000BD740008BD74000815
:10004000BD740008BD740008BD740008BD740008CC
:10005000BD740008BD7400088D710008A771000808
:10006000C1710008DB710008F5710008BD7400085B
:10007000BD740008BD740008BD740008BD7400089C
:10008000BD740008BD740008BD740008BD7400088C
:10009000BD740008BD740008BD7400080F7200082C
:1000A00000000000BD740008BD740008BD740008A5
:1000B000BD740008BD740008BD740008BD7400085C
:1000C000BD740008BD740008BD740008BD7400084C
:1000D000BD7400085134000851350008BD74000893
:1000E00079720008BD740008BD740008BD74000872
:1000F000BD740008000000000000000000000000C7
:1001000000000000000000000000000000000000EF
:1001100000000000000000000000000000000000DF
:1001200000000000000000000000000000000000CF
:0C01300000000000000000005FF808F173
:10013C0010B5054C237833B9044B13B10448AFF315
:10014C0000800123237010BD7C04002000000000FF
:10015C00B87B00080C4B43B10C4810B50C49AFF3FD
:10016C0000800C48036823B910BD0A48036833B9F2
:10017C007047094B002BF7D0BDE810401847064BD1
:10018C00002BF5D0184700BF00000000B87B00081A
:10019C00800400207C0400200000000080B500AF2B
:1001AC00134803F04BFA4FF48071124804F08EFBA5
:1001BC0001224FF480710F4804F0F8FBFA2003F091
:1001CC0019FE0D4803F01AFB09490C4803F0E7FA35
:1001DC000B4B0C4A1A604FF47A710B4800F016F86E
:1001EC000346002B01D10C2300E00B23184680BDE5
:1001FC000038014000000240D4050020D07B0008EC
:10020C00C805002000000808E07B000880B584B019
:10021C0000AF786039600123FB73386803F05AFE35
:10022C00142003F0E7FD79680D4803F0CFFA03467C
:10023C00002B06D00023FB73094803F0DFFA03F010
:10024C0073FE084B1B889BB203F00103002BE7D114
:10025C0003F06AFEFB7B18461037BD4680BD00BF1D
:10026C00D40500200010004080B500AF2749284875
:10027C0003F095FA43F6982003F02CFE142003F0BB
:10028C00B9FD2449244803F0A1FA0346002B06D0FB
:10029C00214803F0B3FA03F047FE012333E01F4972
:1002AC001D4803F093FA0346002B06D01A4803F0BE
:1002BC00A5FA03F039FE022325E01949164803F08C
:1002CC0085FA0346002B06D0134803F097FA03F087
:1002DC002BFE042317E013490F4803F077FA03466B
:1002EC00002B06D00C4803F089FA03F01DFE0E23F8
:1002FC0009E00D4B1B889BB203F00103002BBDD111
:10030C0003F012FE0F23184680BD00BF00380140D9
:10031C00E87B0008F87B0008D4050020047C00086A
:10032C00107C0008207C00080010004080B500AF55
:10033C00234803F063FA2349234803F030FA41F2CF
:10034C0088312248FFF762FF1E49214803F027FA43
:10035C00204B1B6811331B49184603F020FA19492E
:10036C001D4803F01CFA41F288311848FFF74EFF84
:10037C0014491A4803F013FA164B1B68223311491F
:10038C00184603F00CFA0F49134803F008FA41F22F
:10039C0088310E48FFF73AFF0A49114803F0FFF97C
:1003AC0041F288310948FFF731FF06490D4803F047
:1003BC00F6F941F288310548FFF728FF00BF80BDF0
:1003CC00D405002000380140307C0008487C00082F
:1003DC00507C0008C8050020607C0008647C000884
:1003EC00747C0008887C000880B582B000AF634B39
:1003FC00634A1A60634803F021F96249624803F0CA
:10040C00CEF95E4B1B6810330021184604F0F2FD48
:10041C005A4B1B6821330021184604F0EBFD574B57
:10042C001B6842330021184604F0E4FD574803F0E2
:10043C00E5F997E05649554803F0C8F90346002BF7
:10044C0045D05449514803F0C1F90346002B00F044
:10045C008980504A4E494D4803F0E2FA0346092B75
:10046C002DD10723FB7117E0444B1A68FB79073B2E
:10047C001033134401331846FB79444AD35CDBB286
:10048C00194604F0B7FDFB79162B02D13F4803F057
:10049C00B5F9FB790133FB71FB79162BE4D939499A
:1004AC003D4803F07CF9354B1B6811333549184630
:1004BC0003F075F93349374803F071F952E03149CB
:1004CC00364803F06CF9314803F098F94AE03449A6
:1004DC002E4803F07BF90346002B43D02D492B48C3
:1004EC0003F074F90346002B3CD02A4A2C492748C8
:1004FC0003F096FA0346092B2DD10723FB7117E065
:10050C001E4B1A68FB79073B203313440233184601
:10051C00FB791E4AD35CDBB2194604F06BFDFB7908
:10052C00262B02D1194803F069F9FB790133FB71D1
:10053C00FB79262BE4D913491A4803F030F90F4BF9
:10054C001B6822330F49184603F029F90D4911484D
:10055C0003F025F906E00B49104803F020F90B488D
:10056C0003F04CF91049094803F030F90346002B0D
:10057C003FF460AF00BF0837BD4680BDC805002002
:10058C0000000808004400409C7C0008C4040020C3
:10059C00C87C0008607C0008D07C0008DC7C00086B
:1005AC00EC7C0008F47C0008007D000880B483B06B
:1005BC0000AF0023BB7100237B7100233B711D4BEB
:1005CC001D4A1A600023FB710AE01A4B1A68FB796A
:1005DC0013445A7CBB791343BB71FB790133FB7118
:1005EC00FB790F2BF1D90023FB710BE0114B1A682F
:1005FC00FB79134493F822207B7913437B71FB79AD
:10060C000133FB71FB791F2BF0D9BB79002B03D085
:10061C003B7943F001033B717B79002B03D03B7991
:10062C0043F002033B713B7918460C37BD4680BC46
:10063C00704700BFC80500200000080880B582B0D4
:10064C0000AF164B164A1A600023FB710CE0134BDB
:10065C001A68FB791033134401330021184604F057
:10066C00C9FCFB790133FB71FB790F2BEFD900230C
:10067C00FB710CE0094B1A68FB79203313440233ED
:10068C000021184604F0B6FCFB790133FB71FB79B1
:10069C001F2BEFD900BF0837BD4680BDC805002011
:1006AC000000080880B584B000AFF860B9607A60CB
:1006BC003B60494803F0A2F84849494803F06FF8F9
:1006CC004649B86803F06BF84449786803F067F85A
:1006DC004249F86803F063F84049424803F05FF878
:1006EC0047F2305003F0F6FB142003F083FB3E4935
:1006FC00394803F06BF80346002B06D0364803F05C
:10070C007DF803F011FC032361E03849324803F013
:10071C005DF80346002B0AD0B969386800F006F979
:10072C002D4803F06BF803F0FFFB09234FE0304931
:10073C00294803F04BF80346002B06D0264803F05B
:10074C005DF803F0F1FB042341E02A49224803F051
:10075C003DF80346002B06D01F4803F04FF803F07A
:10076C00E3FB072333E024491B4803F02FF803462F
:10077C00002B06D0184803F041F803F0D5FB0623F4
:10078C0025E01E49144803F021F80346002B06D03F
:10079C00114803F033F803F0C7FB052317E01849A1
:1007AC000D4803F013F80346002B06D00A4803F05B
:1007BC0025F803F0B9FB0A2309E0124B1B889BB206
:1007CC0003F00103002B8FD103F0AEFB0F2318466F
:1007DC001037BD4680BD00BFD40500200038014055
:1007EC00087D0008607C0008107D00081C7D000856
:1007FC00107C0008247D0008307D0008387D00083E
:10080C00487D00080010004080B582B000AF7860D1
:10081C00396047F2305003F05DFB142003F0EAFA24
:10082C0039493A4802F0D2FF0346002B06D037482C
:10083C0002F0E4FF03F078FB032361E03449334812
:10084C0002F0C4FF0346002B0AD03968786800F028
:10085C006DF82E4802F0D2FF03F066FB09234FE03F
:10086C002C492A4802F0B2FF0346002B06D0274839
:10087C0002F0C4FF03F058FB042341E0264923484F
:10088C0002F0A4FF0346002B06D0204802F0B6FF6E
:10089C0003F04AFB072333E020491C4802F096FF83
:1008AC000346002B06D0194802F0A8FF03F03CFBCE
:1008BC00062325E01A49154802F088FF0346002B51
:1008CC0006D0124802F09AFF03F02EFB052317E026
:1008DC0014490E4802F07AFF0346002B06D00B4851
:1008EC0002F08CFF03F020FB0A2309E00E4B1B885F
:1008FC009BB203F00103002B8FD103F015FB0F23E8
:10090C0018460837BD4680BD107D0008D405002070
:10091C001C7D0008107C0008247D0008307D000838
:10092C00387D0008487D00080010004080B584B078
:10093C0000AF786039602D4A07F1080392E8030094
:10094C001860043319800023FB730023BB736420ED
:10095C0003F050FABB7B07F11002134413F8082C78
:10096C00FB7B2349CB5CDBB29A4202D1BB7B0133CC
:10097C00BB73FB7B0133FB73BB7B052BEAD9FB7B86
:10098C000133FB730023BB73BB7B7A681344FA7B84
:10099C0017498A5CD2B21A70BB7B0133BB73FB7BE9
:1009AC000133FB73FB7B124AD35CDBB2202BEBD104
:1009BC00FB7B0133FB730023BB73BB7B3A68134493
:1009CC00FA7B0B498A5CD2B21A70BB7B0133BB73C6
:1009DC00FB7B0133FB73FB7B054AD35CDBB20D2B3A
:1009EC00EBD100BF1037BD4680BD00BF1C7D000899
:1009FC00D405002080B582B000AF786039600D4915
:100A0C00786802F0CCFE0B490B4802F0C8FE09498D
:100A1C00386802F0C4FE0749084802F0C0FE4FF4E3
:100A2C007A710748FFF7F2FB034618460837BD46B4
:100A3C0080BD00BF003801405C7D0008607C000870
:100A4C00487C000880B582B000AF78602E4802F078
:100A5C00D5FE2E492E4802F0A2FE2C492D4802F05C
:100A6C009EFE2A49786802F09AFE28492A4802F02C
:100A7C0096FE47F2305003F02DFA2849224802F036
:100A8C00A5FE0346002B06D01F4802F0B7FE03F06C
:100A9C004BFA112333E022491B4802F097FE034620
:100AAC00002B06D0184802F0A9FE03F03DFA1023E3
:100ABC0025E01C49144802F089FE0346002B06D0A1
:100ACC00114802F09BFE03F02FFA122317E016498F
:100ADC000D4802F07BFE0346002B06D00A4802F0BC
:100AEC008DFE03F021FA062309E0104B1B889BB204
:100AFC0003F00103002BC0D103F016FA0F231846A4
:100B0C000837BD4680BD00BFD40500200038014029
:100B1C00607D00085C7D0008607C00086C7D00082E
:100B2C007C7D00088C7D0008307D000800100040A2
:100B3C0080B500AF00224FF48071074803F036FFF8
:100B4C00642003F057F9FFF729FBFFF7EFFB03488D
:100B5C0002F054FE00BF80BD00000240D40500200E
:100B6C0080B400AF134A134B1B6843F480731360BB
:100B7C001049104B9A68104B13408B600D4A0D4B6B
:100B8C001B6823F0885323F001131360094A094BA7
:100B9C001B6823F480231360064A064B9B6823F4DE
:100BAC007D039360034B0022DA6000BFBD4680BC1E
:100BBC00704700BF003802400CC0FF8880B483B07F
:100BCC0000AF0346FB71054B00221A70034AFB79F8
:100BDC00137000BF0C37BD4680BC70470238024012
:100BEC0080B582B000AF00233B600023FB71002373
:100BFC00BB71312000F0E6FB0346BB713B6801334F
:100C0C003B603B68B3F5A04F02D0BB79002BF0D012
:100C1C00312000F0D7FB0346002B02D00123FB71DF
:100C2C0001E00023FB71FB7918460837BD4680BDF7
:100C3C0080B483B000AF0346FB71044AFB79137098
:100C4C0000BF0C37BD4680BC704700BF0738024060
:100C5C0080B485B000AF78600023FB60094B5B6803
:100C6C00FB60FB6823F46043FB60FA687B6813430A
:100C7C00FB60044AFB68536000BF1437BD4680BC60
:100C8C00704700BF0038024080B483B000AF034609
:100C9C00FB71044AFB79136000BF0C37BD4680BC66
:100CAC00704700BF2000474280B485B000AF0346B8
:100CBC00FB710023FB600A4B5B68FB60FB6823F451
:100CCC00F853FB60FB791B02FA681343FB60044A80
:100CDC00FB68536000BF1437BD4680BC704700BF33
:100CEC000038024080B483B000AF0346FB71044A65
:100CFC00FB79136000BF0C37BD4680BC704700BF4A
:100D0C000000474280B483B000AF0346FB71054B33
:100D1C0000221A70034AFB79137000BF0C37BD46D2
:100D2C0080BC70473538024080B483B000AF0346B6
:100D3C00FB71044AFB79136000BF0C37BD4680BCC5
:100D4C00704700BF8006474280B483B000AF0346B3
:100D5C00FB710B46BB7113467B710749BA797B79E2
:100D6C001343DAB2FB791343DBB20B7000BF0C37C1
:100D7C00BD4680BC704700BF0A38024080B483B0C7
:100D8C0000AF0346FB71044AFB79136000BF0C37BC
:100D9C00BD4680BC704700BF6000474280B483B042
:100DAC0000AF0346FB71044AFB79136000BF0C379C
:100DBC00BD4680BC704700BF7000474280B483B012
:100DCC0000AF0346FB71044AFB79136000BF0C377C
:100DDC00BD4680BC704700BFAC06474280B483B0B0
:100DEC0000AF03460A46FB711346BB710549FA79FD
:100DFC00BB791343DBB20B7000BF0C37BD4680BC14
:100E0C00704700BF0B38024080B485B000AF7860EB
:100E1C000023FB60094B9B68FB60FB6823F003031A
:100E2C00FB60FA687B681343FB60044AFB689360C1
:100E3C0000BF1437BD4680BC704700BF003802406D
:100E4C0080B400AF044B9B68DBB203F00C03DBB245
:100E5C001846BD4680BC70470038024080B485B04F
:100E6C0000AF78600023FB60094B9B68FB60FB685C
:100E7C0023F0F003FB60FA687B681343FB60044AC1
:100E8C00FB68936000BF1437BD4680BC704700BF41
:100E9C000038024080B485B000AF78600023FB605E
:100EAC00094B9B68FB60FB6823F4E063FB60FA680A
:100EBC007B681343FB60044AFB68936000BF1437E4
:100ECC00BD4680BC704700BF0038024080B485B07E
:100EDC0000AF78600023FB60094B9B68FB60FB68EC
:100EEC0023F46053FB607B68DB00FA681343FB6000
:100EFC00034AFB68936000BF1437BD4680BC704743
:100F0C000038024080B489B000AF78600023FB61E8
:100F1C000023BB6100237B6100233B610023FB604A
:100F2C000023BB605F4B9B6803F00C03FB61FB6908
:100F3C000C2B65D801A252F823F000BF7D0F0008DE
:100F4C000D1000080D1000080D1000089D0F000872
:100F5C000D1000080D1000080D100008A50F00085A
:100F6C000D1000080D1000080D100008AD0F000842
:100F7C004C4B5B685B0B03F00703BB60BB68013336
:100F8C004FF4004202FA03F31A467B681A6047E0FA
:100F9C007B68454A1A6043E07B68444A1A603FE02C
:100FAC00404B9B6803F47013BB613E4B9B6803F48E
:100FBC0040037B61BB699B0C3D4AD35CDBB2BB61DC
:100FCC007B699B0D01337B61364B9B6803F480334B
:100FDC003B613B69002B09D1BB69334A02FB03F22D
:100FEC007B69B2FBF3F27B681A6019E0BB692F4A8C
:100FFC0002FB03F27B69B2FBF3F27B681A600FE031
:10100C00284B5B685B0B03F00703BB60BB680133C9
:10101C004FF4004202FA03F31A467B681A6000BFD1
:10102C00204B9B6803F0F003FB61FB691B09FB6120
:10103C00204AFB6913441B78DBB2FB607B681A689F
:10104C00FB68DA407B685A60164B9B6803F4E063DC
:10105C00FB61FB691B0AFB61164AFB6913441B7895
:10106C00DBB2FB607B685A68FB68DA407B689A608D
:10107C000C4B9B6803F46053FB61FB69DB0AFB615F
:10108C000C4AFB6913441B78DBB2FB607B685A6823
:10109C00FB68DA407B68DA6000BF2437BD4680BC51
:1010AC00704700BF003802400024F40000127A00A0
:1010BC00000000200C00002080B485B000AF7860E8
:1010CC000023FB607B6803F44033B3F5403F0FD142
:1010DC00114B1B68FB60FB6823F0C043FB607B6813
:1010EC0003F0C043FA681343FB600B4AFB681360C0
:1010FC00094A094B5B6B23F4403353630649064B97
:10110C005A6B7B6803F4403313434B6300BF1437B3
:10111C00BD4680BC704700BF0038024080B483B02D
:10112C0000AF0346FB71044AFB79136000BF0C3718
:10113C00BD4680BC704700BFD806474280B483B020
:10114C0000AF0346FB71044AFB79136000BF0C37F8
:10115C00BD4680BC704700BFDC06474280B483B0FC
:10116C0000AF78600B46FB70FB78002B06D009496A
:10117C00084BDA697B681343CB6106E00549054BE4
:10118C00DA697B68DB431340CB6100BF0C37BD468B
:10119C0080BC70470038024080B483B000AF7860E8
:1011AC000B46FB70FB78002B06D00949084B1A6ADA
:1011BC007B6813430B6206E00549054B1A6A7B6892
:1011CC00DB4313400B6200BF0C37BD4680BC70473D
:1011DC000038024080B483B000AF78600B46FB70DF
:1011EC00FB78002B06D00949084B5A6A7B681343DD
:1011FC004B6206E00549054B5A6A7B68DB4313409A
:10120C004B6200BF0C37BD4680BC704700380240B3
:10121C0080B483B000AF78600B46FB70FB78002B7A
:10122C0006D00949084B1A697B6813430B6106E029
:10123C000549054B1A697B68DB4313400B6100BF02
:10124C000C37BD4680BC70470038024080B483B078
:10125C0000AF78600B46FB70FB78002B06D0094979
:10126C00084B5A697B6813434B6106E00549054BF3
:10127C005A697B68DB4313404B6100BF0C37BD469A
:10128C0080BC70470038024080B483B000AF7860F7
:10129C000B46FB70FB78002B06D00949084B9A696A
:1012AC007B6813438B6106E00549054B9A697B68A3
:1012BC00DB4313408B6100BF0C37BD4680BC7047CD
:1012CC000038024080B483B000AF78600B46FB70EE
:1012DC00FB78002B06D00949084B9A6A7B681343AC
:1012EC008B6206E00549054B9A6A7B68DB43134029
:1012FC008B6200BF0C37BD4680BC70470038024083
:10130C0080B483B000AF78600B46FB70FB78002B89
:10131C0006D00949084BDA6A7B681343CB6206E0B6
:10132C000549054BDA6A7B68DB431340CB6200BF8F
:10133C000C37BD4680BC70470038024080B483B087
:10134C0000AF78600B46FB70FB78002B06D0094988
:10135C00084B1A6B7B6813430B6306E00549054B7E
:10136C001A6B7B68DB4313400B6300BF0C37BD4625
:10137C0080BC70470038024080B483B000AF034695
:10138C000A46FB711346BB71BB79002B08D00C4984
:10139C000B4B1B78DAB2FB791343DBB20B7009E011
:1013AC000749074B1B78DAB2FB79DB43DBB21340FE
:1013BC00DBB20B7000BF0C37BD4680BC704700BF62
:1013CC000D38024080B487B000AF0346FB71002398
:1013DC00FB6000237B610023FB74FB795B09DBB2B0
:1013EC00FB60FB68012B03D10E4B1B687B6102E099
:1013FC000C4B5B6B7B61FB7903F01F03FB607A6921
:10140C00FB6822FA03F303F00103002B02D0012343
:10141C00FB7401E00023FB74FB7C18461C37BD46B3
:10142C0080BC70470038024080B400AF044A044BC3
:10143C005B6B43F08073536300BFBD4680BC704749
:10144C000038024080B485B000AF0346FB71002326
:10145C00FB73084BDA68FB791340002B02D0012395
:10146C00FB7301E00023FB73FB7B18461437BD466E
:10147C0080BC70470038024080B483B000AF034694
:10148C00FB71044AFB79137000BF0C37BD4680BC5E
:10149C00704700BF0E38024080B500AF012101201B
:1014AC00FFF7D4FE00210120FFF7D0FE00BF80BD66
:1014BC0080B400AF0C4B00221A600B4B00225A6018
:1014CC00094B00229A60084B0022DA60064B00227E
:1014DC001A61054B00225A61034B00229A6100BF2E
:1014EC00BD4680BC704700BF047C004080B483B014
:1014FC0000AF0346FB71044AFB79136000BF0C3745
:10150C00BD4680BC704700BF0000014080B400AFF6
:10151C00034B1B6803F440731846BD4680BC7047F0
:10152C000000014080B483B000AF0346FB71FB792F
:10153C00002B06D0084A084B5B6843F0010353604C
:10154C0005E0054A044B5B6823F00103536000BFC0
:10155C000C37BD4680BC70470000014090B484B08D
:10156C0000AF03460A46FB711346BB710023FB60B8
:10157C00BB7903F003039B000F2202FA03F3FB6019
:10158C001649BB799B08DBB21846144ABB799B08F9
:10159C00DBB2023352F82320FB68DB431A40831C76
:1015AC0041F823200D48BB799B08DBB21C460B4A43
:1015BC00BB799B08DBB2023352F82320F979BB7953
:1015CC0003F003039B0001FA03F31A43A31C40F836
:1015DC00232000BF1037BD4690BC7047000001406F
:1015EC0080B485B000AF78600023FB60094B1B68AA
:1015FC00FB60FB6823F44033FB60FA687B681343A1
:10160C00FB60044AFB68136000BF1437BD4680BC06
:10161C00704700BF047C004080B485B000AF786098
:10162C0039600023FB60234B1B68FB60FA687B6806
:10163C001343FB607B6803F48023002B07D0FB680B
:10164C0023F00F03FB60FA683B681343FB607B6875
:10165C0003F40023002B08D0FB6823F0F003FB609D
:10166C003B681B01FA681343FB607B6803F480132F
:10167C00002B08D0FB6823F47063FB603B681B02F3
:10168C00FA681343FB607B6803F40013002B08D04B
:10169C00FB6823F47043FB603B681B03FA6813433D
:1016AC00FB60044AFB68136000BF1437BD4680BC66
:1016BC00704700BF047C004080B483B000AF7860FA
:1016CC000B46FB70FB78002B06D00949084B1A68B7
:1016DC007B6813430B6006E00549054B1A687B6871
:1016EC00DB4313400B6000BF0C37BD4680BC70471A
:1016FC00007C004080B483B000AF786039603B68F8
:10170C00002B07D00949094B1A687B68DB4313404F
:10171C000B6005E00549054B1A687B6813430B60A9
:10172C0000BF0C37BD4680BC704700BF007C00403A
:10173C0080B485B000AF78600B46FB700023FB6073
:10174C007B68DB0FFB607B6823F000437B60FB78DE
:10175C00002B10D0FB68002B06D01249114B5A6895
:10176C007B6813434B6018E00E490E4B9A687B68FC
:10177C0013438B6011E0FB68002B07D00949094B20
:10178C005A687B68DB4313404B6006E00549054B08
:10179C009A687B68DB4313408B6000BF1437BD46EF
:1017AC0080BC7047047C004080B483B000AF03461B
:1017BC00FB71FB79002B06D0084A084B5B6843F0A1
:1017CC000043536005E0054A044B5B6823F000437B
:1017DC00536000BF0C37BD4680BC7047047C004092
:1017EC0080B483B000AF0346FB710B46BB8013463D
:1017FC00BB71FB79012B11D1BB79002B07D04A4966
:10180C00494BDA68BB88DB431340CB6086E0464922
:10181C00454BDA68BB881343CB607FE0FB79022B26
:10182C0013D1BB79002B08D03F493F4BDA68BB88FA
:10183C00DB431B041340CB6070E03B493A4BDA6846
:10184C00BB881B041343CB6068E0FB79032B11D1DD
:10185C00BB79002B07D03449334B1A69BB88DB4367
:10186C0013400B615AE030492F4B1A69BB88134364
:10187C000B6153E0FB79042B13D1BB79002B08D0FF
:10188C002949294B1A69BB88DB431B0413400B61A4
:10189C0044E02549244B1A69BB881B0413430B6194
:1018AC003CE0FB79052B11D1BB79002B07D01E49ED
:1018BC001D4B5A69BB88DB4313404B612EE01A4920
:1018CC00194B5A69BB8813434B6127E0FB79062BF4
:1018DC0013D1BB79002B08D01349134B5A69BB8821
:1018EC00DB431B0413404B6118E00F490E4B5A6944
:1018FC00BB881B0413434B6110E0BB79002B07D052
:10190C000949094B9A69BB88DB4313408B6105E09D
:10191C000549054B9A69BB8813438B6100BF0C3793
:10192C00BD4680BC704700BF047C004080B400AF53
:10193C00094B00221A60084B00225A60064B002209
:10194C009A60054B0022DA60034B6FF07F425A61BC
:10195C0000BFBD4680BC70470004014080B485B018
:10196C0000AF78600023FB60344BFB607B689B7995
:10197C00002B4FD03149314B1A687B681B68DB4315
:10198C0013400B602D492D4B5A687B681B68DB4359
:10199C0013404B607B681B791A46FB681344FB6051
:1019AC00FB68FA6811687A6812680A431A6023495E
:1019BC00224B9A687B681B68DB4313408B601F4982
:1019CC001E4BDA687B681B68DB431340CB607B687B
:1019DC005B79102B0ED11949184B9A687B681B68E0
:1019EC0013438B601549154BDA687B681B681343EE
:1019FC00CB601DE0114BFB607B685B791A46FB6882
:101A0C001344FB60FB68FA6811687A6812680A4331
:101A1C001A600DE07B681B791A46FB681344FB6067
:101A2C00FB68FA6811687A681268D2430A401A6037
:101A3C0000BF1437BD4680BC704700BF0004014096
:101A4C0080B483B000AF78607B6800221A607B683A
:101A5C0000221A717B680C225A717B6800229A71E1
:101A6C0000BF0C37BD4680BC704780B483B000AF5C
:101A7C0078600549044B1A697B6813430B6100BFFE
:101A8C000C37BD4680BC70470004014080B485B063
:101A9C0000AF78600023FB73084B5A697B681340D6
:101AAC00002B02D00123FB7301E00023FB73FB7BB3
:101ABC0018461437BD4680BC704700BF0004014077
:101ACC0080B483B000AF7860034A7B68536100BF79
:101ADC000C37BD4680BC70470004014080B485B013
:101AEC0000AF78600023FB73084B5A697B68134086
:101AFC00002B02D00123FB7301E00023FB73FB7B63
:101B0C0018461437BD4680BC704700BF0004014026
:101B1C0080B483B000AF7860034A7B68536100BF28
:101B2C000C37BD4680BC70470004014080B483B0C4
:101B3C0000AF7860054A7B6843F0BF6343F4003321
:101B4C00D36000BF0C37BD4680BC704700ED00E091
:101B5C0080B485B000AF78600023FB730023BB73A7
:101B6C000F237B737B68DB78002B39D0274BDB682A
:101B7C00DB431B0ADBB203F00703FB73FB7BC3F1F4
:101B8C000403BB737A7BFB7B42FA03F37B737B68A6
:101B9C005B781A46BB7B02FA03F3FB737B689A787B
:101BAC007B7B1340DAB2FB7B1343FB73FB7B1B0188
:101BBC00FB73174A7B681B781344FA7B83F800236A
:101BCC00134A7B681B785B09DBB218467B681B7871
:101BDC0003F01F03012101FA03F342F820300FE058
:101BEC000B497B681B785B09DBB218467B681B785A
:101BFC0003F01F0301229A4000F1200341F8232037
:101C0C0000BF1437BD4680BC704700BF00ED00E03C
:101C1C0000E100E080B483B000AF78603960074920
:101C2C003B6823F0604323F07F037A6813438B6097
:101C3C0000BF0C37BD4680BC704700BF00ED00E014
:101C4C0080B483B000AF03460A46FB711346BB71E8
:101C5C00BB79002B06D00949084B1A69FB79134351
:101C6C000B6106E00549054B1A69FB79DB43134010
:101C7C000B6100BF0C37BD4680BC704700ED00E027
:101C8C0080B483B000AF78607B68042B06D1094A1E
:101C9C00084B1B6843F00403136005E0054A054B31
:101CAC001B6823F00403136000BF0C37BD4680BCD7
:101CBC00704700BF10E000E080B500AF154A154B2F
:101CCC001B6843F4807313601249124B9A68124BD1
:101CDC0013408B600F4A0F4B1B6823F0885323F083
:101CEC00011313600B4A0B4B1B6823F48023136006
:101CFC00084A084B9B6823F47D039360054B002234
:101D0C00DA6000F0B9F8054B4FF000629A6000BF42
:101D1C0080BD00BF003802400CC0FF8800ED00E021
:101D2C0080B487B000AF00237B6100233B610023AC
:101D3C00FB600023BB6000237B60494B9B6803F076
:101D4C000C037B617B690C2B64D801A252F823F045
:101D5C00911D0008211E0008211E0008211E0008EC
:101D6C00B11D0008211E0008211E0008211E0008BC
:101D7C00B91D0008211E0008211E0008211E0008A4
:101D8C00C11D0008364B5B685B0B03F007037B60DF
:101D9C007B6801334FF4004202FA03F31A46314BCD
:101DAC001A6047E02F4B304A1A6043E02D4B2F4A04
:101DBC001A603FE02A4B9B6803F470133B61284B7D
:101DCC009B6803F44003FB603B699B0C284AD35C83
:101DDC00DBB23B61FB689B0D0133FB60204B9B68C6
:101DEC0003F48033BB60BB68002B09D13B691E4AEE
:101DFC0002FB03F2FB68B2FBF3F31A4A136019E01F
:101E0C003B691A4A02FB03F2FB68B2FBF3F3154A77
:101E1C0013600FE0124B5B685B0B03F007037B60F6
:101E2C007B6801334FF4004202FA03F31A460D4B60
:101E3C001A6000BF0A4B9B681B0903F00F030D4A85
:101E4C00D35CDBB27B61074B1A687B6922FA03F324
:101E5C00044A136000BF1C37BD4680BC704700BFEE
:101E6C00003802401C0000200024F40000127A000C
:101E7C00200000202C00002080B483B000AF002391
:101E8C007B6000233B60414A404B1B6843F00103DD
:101E9C0013603E4B1B6803F002033B603B68002B56
:101EAC0003D17B68B3F5A04FF3D1384B1B6803F01B
:101EBC000203002B02D001233B6001E000233B60B6
:101ECC003B68012B5CD1324A314B1B6823F0010378
:101EDC0013602F4A2E4B1B6823F0020313602C4A0D
:101EEC002B4B1B6823F004031360284A274B5B6AB7
:101EFC0043F080535362274B4FF480521A6000BF5B
:101F0C00244B5B6803F01003002BF9D11F4A1F4BC5
:101F1C009B6843F0800393601C4A1C4B9B68936046
:101F2C001A4A1A4B9B689360184A184B9B6823F407
:101F3C007D039360154A154B9B6843F40003936033
:101F4C00124A124B1B6843F08073136000BF0F4B97
:101F5C001B6803F00073002BF9D00C4A0B4B9B68E9
:101F6C0023F003039360094A084B9B6843F0030377
:101F7C00936000BF054B9B6803F00C030C2BF9D14D
:101F8C0000BF0C37BD4680BC704700BF0038024014
:101F9C00003C02400070004080B584B000AF0023CC
:101FAC007B600023BB600023FB73364BCA225A6252
:101FBC00344B53225A6200F0D1F80346002B02D165
:101FCC000023FB7355E02F4B00221A602D4B42F27D
:101FDC0001125A602B4A2B4B9B6803F0070393604A
:101FEC00284BDB6803F00403BB607B6801337B6028
:101FFC007B68B3F5005F02D0BB68002BF0D0214B9F
:10200C00DB6803F00403002B02D10023FB7330E0E8
:10201C001C4B9B681B4B00229A601A4B4FF6FF72AD
:10202C005A61184B184A1A61164B00229A61154BCB
:10203C000022DA61134B00221A62124B0022DA6280
:10204C00104B0022DA630F4B00225A640D4B002216
:10205C009A640C4B0022DA600A4B00221A6400F0DE
:10206C00C3F80346002B02D10023FB7301E00123CC
:10207C00FB73044BFF225A62FB7B18461037BD469C
:10208C0080BD00BF00280040FF007F0080B584B0F9
:10209C0000AF78600023FB73194BCA225A62184BAD
:1020AC0053225A6200F05AF80346002B02D1002347
:1020BC00FB731CE0124A124B9B6823F040039360A5
:1020CC000F490F4B9A687B681B6813438B600C4A53
:1020DC007B689B6813610A49094B1A697B685B68CA
:1020EC001B0413430B6100F071F80123FB73044BC9
:1020FC00FF225A62FB7B18461037BD4680BD00BFDD
:10210C000028004080B483B000AF78607B68002268
:10211C001A607B687F225A607B68FF229A6000BF3E
:10212C000C37BD4680BC704780B483B000AF03460B
:10213C00FB71FB79002B03D0074BFF225A6205E0A1
:10214C00054BCA225A62044B53225A6200BF0C3709
:10215C00BD4680BC704700BF0028004080B485B0ED
:10216C0000AF00237B600023FB730023BB60164B86
:10217C00DB6803F04003002B1ED1134B4FF0FF32F2
:10218C00DA60114BDB6803F04003BB607B68013302
:10219C007B607B68B3F5005F02D0BB68002BF0D08E
:1021AC00094BDB6803F04003002B02D00123FB73C7
:1021BC0004E00023FB7301E00123FB73FB7B184657
:1021CC001437BD4680BC70470028004080B400AF77
:1021DC00044A044BDB6823F08003D36000BFBD4688
:1021EC0080BC70470028004080B485B000AF00234D
:1021FC007B600023FB730023BB60174BCA225A621F
:10220C00154B53225A62144A134BDB6823F0A0037C
:10221C00D360114BDB6803F02003BB607B68013398
:10222C007B607B68B3F5004F02D0BB68002BF0D00D
:10223C00094BDB6803F02003002B02D00123FB7356
:10224C0001E00023FB73044BFF225A62FB7B184610
:10225C001437BD4680BC70470028004080B584B060
:10226C0000AF0346FB710023FB73154BCA225A6265
:10227C00134B53225A62FFF771FF0346002B02D116
:10228C000023FB7313E0FB79002B06D00C4A0C4B9C
:10229C009B6843F01003936005E0094A084B9B6868
:1022AC0023F010039360FFF791FF0123FB73044BA2
:1022BC00FF225A62FB7B18461037BD4680BD00BF1B
:1022CC000028004080B483B000AF0346FB710F4B75
:1022DC00CA225A620D4B53225A62FB79002B06D04C
:1022EC000A4A0A4B9B6843F02003936005E0074AB7
:1022FC00064B9B6803F0DF039360044BFF225A628A
:10230C0000BF0C37BD4680BC704700BF00280040A2
:10231C0090B585B000AF786039600023FB60002376
:10232C00FB727B68002B09D13D4B9B6803F040038B
:10233C00002B14D13B680022DA7010E0384B9B68FC
:10234C0003F04003002B07D03B681B78184601F0C4
:10235C005DF80346FB6002E03B680022DA707B68A4
:10236C00002B0FD03B681B781A043B685B781B0270
:10237C0013433A6892781A433B68DB781B04134387
:10238C00FB601BE03B681B78184601F023F8034602
:10239C001C043B685B78184601F01CF803461B02D2
:1023AC001C433B689B78184601F014F8034644EA3A
:1023BC0003023B68DB781B041343FB60184BCA22F7
:1023CC005A62174B53225A62FFF7C8FE0346002B82
:1023DC0002D10023FB721BE0114AFB6803F07F3330
:1023EC0023F0FE431360FFF7F1FE0D4B9B6803F0E7
:1023FC002003002B0AD1FFF7F7FE0346002B02D176
:10240C000023FB7204E00123FB7201E00123FB7249
:10241C00034BFF225A62FB7A18461437BD4690BD17
:10242C000028004080B483B000AF78607B68002245
:10243C00DA707B6800221A707B6800225A707B6805
:10244C0000229A7000BF0C37BD4680BC704780B527
:10245C0084B000AF786039600023FB60234B1B68AD
:10246C0003F07F3323F0FE43FB60FB681B0CDBB2F5
:10247C0003F03F03DAB23B681A70FB681B0ADBB24D
:10248C0003F07F03DAB23B685A70FB68DBB203F0EF
:10249C007F03DAB23B689A70FB681B0CDBB203F06B
:1024AC004003DAB23B68DA707B68002B1AD13B68C8
:1024BC001B78184600F0AAFF03461A463B681A70B0
:1024CC003B685B78184600F0A1FF03461A463B6850
:1024DC005A703B689B78184600F098FF03461A46E2
:1024EC003B689A7000BF1037BD4680BD0028004085
:1024FC0080B483B000AF00237B60054B9B6A7B608C
:10250C00034B5B687B6818460C37BD4680BC704734
:10251C000028004090B585B000AF7860396000238A
:10252C00FB600023FB727B68002B0ED13B685B7851
:10253C0003F01003002B08D03B685B7823F01003EA
:10254C00DBB20A33DAB23B685A707B68002B0DD0D1
:10255C003B685B78184600F059FF0346FB603B680C
:10256C009B78184600F052FF0346FB607B68002BFB
:10257C000FD03B68DB781A043B685B781B02134373
:10258C003A6892781A433B681B785B031343FB60F1
:10259C001BE03B68DB78184600F01CFF03461C046C
:1025AC003B685B78184600F015FF03461B021C4382
:1025BC003B689B78184600F00DFF034644EA030283
:1025CC003B681B785B031343FB60194BCA225A62AE
:1025DC00174B53225A62FFF7C1FD0346002B02D161
:1025EC000023FB721BE0124AFB6823F07F4323F0AD
:1025FC00C0035360FFF7EAFD0D4B9B6803F020030B
:10260C00002B0AD1FFF7F0FD0346002B02D100236B
:10261C00FB7204E00123FB7201E00123FB72044B0B
:10262C00FF225A62FB7A18461437BD4690BD00BF94
:10263C000028004080B483B000AF78607B68012232
:10264C001A707B6801229A707B6801225A707B6831
:10265C000022DA7000BF0C37BD4680BC704780B5D5
:10266C0084B000AF786039600023FB60224B5B685C
:10267C0023F07F4323F0C003FB60FB681B0CDAB232
:10268C003B68DA70FB681B0ADBB203F01F03DAB29B
:10269C003B685A70FB68DBB203F03F03DAB23B686D
:1026AC009A70FB685B0BDBB203F00703DAB23B6892
:1026BC001A707B68002B1AD13B68DB78184600F047
:1026CC00A5FE03461A463B68DA703B685B781846F1
:1026DC0000F09CFE03461A463B685A703B689B7898
:1026EC00184600F093FE03461A463B689A7000BFEA
:1026FC001037BD4680BD00BF0028004090B587B0A4
:10270C0000AFF860B9607A6000237B61FB68002B36
:10271C0009D1474B9B6803F04003002B27D17B6802
:10272C000022DA7023E0424B9B6803F04003002B3D
:10273C0007D07B681B78184600F068FE03467B6167
:10274C0002E07B680022DA707B689B68002B07D163
:10275C007B681B7B184600F059FE03467B6106E044
:10276C007B681B7B184600F051FE03467B61FB68BF
:10277C00002B19D07B681B781A047B685B781B02D2
:10278C0013437A6892781A437B68DB781B041A43EC
:10279C007B681B7B1B061A437B689B681A437B6810
:1027AC005B6813437B612BE07B681B78184600F059
:1027BC0011FE03461C047B685B78184600F00AFE89
:1027CC0003461B021C437B689B78184600F002FEF4
:1027DC00034644EA03027B68DB781B0442EA0304E9
:1027EC007B681B7B184600F0F5FD03461B0644EA8C
:1027FC0003027B689B681A437B685B6813437B61AD
:10280C000B4BCA225A620A4B53225A62BB68B3F56D
:10281C00807F03D1064A7B69D36102E0044A7B695D
:10282C001362034BFF225A6200BF1C37BD4690BD9A
:10283C000028004080B483B000AF78607B68002231
:10284C00DA707B6800221A707B6800225A707B68F1
:10285C0000229A707B6800229A607B6801221A73AE
:10286C007B6800225A6000BF0C37BD4680BC7047A5
:10287C0080B586B000AFF860B9607A6000237B61E8
:10288C00BB68B3F5807F03D1314BDB697B6102E020
:10289C002F4B1B6A7B617B691B0CDBB203F03F0384
:1028AC00DAB27B681A707B691B0ADBB203F07F0318
:1028BC00DAB27B685A707B69DBB203F07F03DAB261
:1028CC007B689A707B691B0CDBB203F04003DAB2B5
:1028DC007B68DA707B691B0EDBB203F03F03DAB264
:1028EC007B681A737B6903F080427B689A607B6912
:1028FC0003F080327B685A60FB68002B23D17B6825
:10290C001B78184600F082FD03461A467B681A7045
:10291C007B685B78184600F079FD03461A467B68A5
:10292C005A707B689B78184600F070FD03461A4677
:10293C007B689A707B681B7B184600F067FD03462A
:10294C001A467B681A7300BF1837BD4680BD00BF9E
:10295C000028004080B487B000AF78600B46FB7055
:10296C000023FB6000233B610023FB751E4BCA2236
:10297C005A621D4B53225A62FB78002B08D01A491D
:10298C00194B9A687B6813438B600123FB7522E01B
:10299C001549154B9A687B68DB4313408B60124BCF
:1029AC00DA687B681B0A13403B61FB680133FB60F0
:1029BC00FB68B3F5005F02D03B69002BEFD00A4BEC
:1029CC00DA687B681B0A1340002B02D10023FB75CD
:1029DC0001E00123FB75044BFF225A62FB7D184674
:1029EC001C37BD4680BC70470028004080B487B0BF
:1029FC0000AFF860B9607A6000237B610E4BCA228D
:102A0C005A620D4B53225A62BA687B6813437B613E
:102A1C00FB68B3F5807F03D1074A7B69536402E0FE
:102A2C00054A7B699364044BFF225A6200BF1C3732
:102A3C00BD4680BC704700BF0028004080B485B004
:102A4C0000AF78600023FB607B68B3F5807F05D115
:102A5C00084B5B6CC3F30E03FB6004E0054B9B6CF3
:102A6C00C3F30E03FB60FB6818461437BD4680BCED
:102A7C00704700BF0028004080B483B000AF78607E
:102A8C000C4BCA225A620B4B53225A62094A094B0D
:102A9C009B6823F0070393600649064B9A687B6892
:102AAC0013438B60034BFF225A6200BF0C37BD46A9
:102ABC0080BC70470028004080B483B000AF7860C1
:102ACC00084BCA225A62074B53225A62054A7B684A
:102ADC005361044BFF225A6200BF0C37BD4680BCC9
:102AEC00704700BF0028004080B400AF034B5B6907
:102AFC009BB21846BD4680BC704700BF0028004002
:102B0C0080B487B000AF0346FB710023FB60002349
:102B1C003B610023FB751D4BCA225A621B4B53228F
:102B2C005A62FB79002B08D0184A184B9B6843F467
:102B3C00806393600123FB751FE0144A134B9B6861
:102B4C0023F480639360114BDB6803F004033B6157
:102B5C00FB680133FB60FB68B3F5005F02D03B6997
:102B6C00002BF0D0094BDB6803F00403002B02D1DF
:102B7C000023FB7501E00123FB75044BFF225A6215
:102B8C00FB7D18461C37BD4680BC704700280040B2
:102B9C0080B483B000AF786039600E4BCA225A62A1
:102BAC000C4B53225A620B4A0A4B9B6823F480232A
:102BBC0093600848074B9A6879683B680B4313434A
:102BCC008360044BFF225A6200BF0C37BD4680BCA9
:102BDC00704700BF0028004080B400AF034B9B68D7
:102BEC0003F480231846BD4680BC70470028004083
:102BFC0080B483B000AF786039600E4BCA225A6241
:102C0C000C4B53225A620B4A0A4B9B6823F4E00389
:102C1C0093600848074B9A6879683B680B431343E9
:102C2C008360044BFF225A6200BF0C37BD4680BC48
:102C3C00704700BF0028004080B584B000AF7860BA
:102C4C0039600023FB730F4BCA225A620D4B53227F
:102C5C005A62FFF783FA0346002B02D10023FB7361
:102C6C0008E008497A683B6813438B61FFF7AEFABA
:102C7C000123FB73034BFF225A62FB7B1846103770
:102C8C00BD4680BD0028004080B584B000AF03462F
:102C9C00FB710023FB73154BCA225A62134B532250
:102CAC005A62FFF75BFA0346002B02D10023FB7339
:102CBC0013E0FB79002B06D00C4A0C4B9B6843F0BD
:102CCC008003936005E0094A084B9B6823F080035E
:102CDC009360FFF77BFA0123FB73044BFF225A62CC
:102CEC00FB7B18461037BD4680BD00BF0028004056
:102CFC0080B483B000AF0346FB710F4BCA225A62FB
:102D0C000D4B53225A62FB79002B06D00A4A0A4B10
:102D1C009B6843F40003936005E0074A064B9B68ED
:102D2C0023F400039360044BFF225A6200BF0C375C
:102D3C00BD4680BC704700BF0028004080B483B003
:102D4C0000AF78600C4BCA225A620B4B53225A626A
:102D5C00094A094B9B6823F4002393600649064BF0
:102D6C009A687B6813438B60034BFF225A6200BF47
:102D7C000C37BD4680BC70470028004080B487B03B
:102D8C0000AFF860B9607A600023FB7500233B61EB
:102D9C001A4BCA225A62194B53225A62174BDB68E0
:102DAC0003F48033002B0DD002E03B6901333B610F
:102DBC00124BDB6803F48033002B03D03B69B3F573
:102DCC00805FF2D10D4BDB6803F48033002B09D10B
:102DDC000A49FA68BB681A437B681343CB63012327
:102DEC00FB7501E00023FB75044BFF225A62FB7D4F
:102DFC0018461C37BD4680BC704700BF00280040F9
:102E0C0080B485B000AF78600B46FB700023FB608C
:102E1C00124B9B6823F4006323F00803FB60FB78E0
:102E2C00002B06D07A68FB68134343F40063FB6005
:102E3C0003E0FA687B681343FB60084BCA225A62B2
:102E4C00064B53225A62054AFB689360034BFF22E0
:102E5C005A6200BF1437BD4680BC70470028004042
:102E6C0080B586B000AFF860B9607A6000237B61F2
:102E7C0000233B61414B1B6B03F07F3323F0FE437C
:102E8C007B613E4B5B6B23F07F4323F0C0033B61C4
:102E9C007B691B0CDBB203F03F03DAB2BB681A7020
:102EAC007B691B0ADBB203F07F03DAB2BB685A7092
:102EBC007B69DBB203F07F03DAB2BB689A707B6983
:102ECC001B0CDBB203F04003DAB2BB68DA707B6830
:102EDC000022DA703B691B0ADBB203F01F03DAB283
:102EEC007B685A703B69DBB203F03F03DAB27B6854
:102EFC009A703B695B0BDBB203F00703DAB27B68B9
:102F0C001A70FB68002B35D1BB681B78184600F093
:102F1C007DFA03461A46BB681A70BB685B78184684
:102F2C0000F074FA03461A46BB685A70BB689B786B
:102F3C00184600F06BFA03461A46BB689A707B6819
:102F4C005B78184600F062FA03461A467B685A70A2
:102F5C007B689B78184600F059FA03461A467B6842
:102F6C009A707B681B78184600F050FA03461A4694
:102F7C007B681A7000BF1837BD4680BD0028004022
:102F8C0080B400AF024B9B6B1846BD4680BC7047AB
:102F9C000028004080B483B000AF786039603B6893
:102FAC00002B08D10A490A4B1A6C7B685B00DB4387
:102FBC0013400B6406E00649054B1A6C7B685B00FA
:102FCC0013430B6400BF0C37BD4680BC704700BF79
:102FDC000028004080B483B000AF78600B46FB70D3
:102FEC00FB78002B06D00949084B1A6C7B681343FD
:102FFC000B6406E00549054B1A6C7B68DB431340F8
:10300C000B6400BF0C37BD4680BC704700280040E5
:10301C0080B483B000AF7860084A084B1B6C23F473
:10302C00C05313640549054B1A6C7B6813430B643E
:10303C0000BF0C37BD4680BC704700BF0028004065
:10304C0080B483B000AF7860084A084B1B6C23F443
:10305C00E06313640549054B1A6C7B6813430B64DE
:10306C0000BF0C37BD4680BC704700BF0028004035
:10307C0080B483B000AF7860084A084B1B6C23F413
:10308C00C04313640549054B1A6C7B6813430B64EE
:10309C0000BF0C37BD4680BC704700BF0028004005
:1030AC0080B483B000AF0346FB71FB79002B06D0D4
:1030BC00084A084B1B6C43F08003136405E0054A77
:1030CC00044B1B6C23F08003136400BF0C37BD460C
:1030DC0080BC70470028004080B483B000AF03462A
:1030EC00FB71FB79002B06D0084A084B1B6C23F4B0
:1030FC000043136405E0054A044B1B6C43F4004386
:10310C00136400BF0C37BD4680BC704700280040DC
:10311C0080B485B000AF786039600023FB60084B49
:10312C00FB607B689A00FB681344FB60FB681A46E3
:10313C003B68136000BF1437BD4680BC704700BFAE
:10314C005028004080B485B000AF78600023FB604D
:10315C00064BFB607B689A00FB681344FB60FB68C2
:10316C001B6818461437BD4680BC70475028004079
:10317C0080B483B000AF7860084A084B1B6C23F412
:10318C00802313640549054B1A6C7B6813430B644D
:10319C0000BF0C37BD4680BC704700BF0028004004
:1031AC0080B584B000AF786039600023FB730023D6
:1031BC00BB60214BCA225A621F4B53225A621E4BD0
:1031CC00DB6803F00803002B0DD002E0BB68013371
:1031DC00BB60194BDB6803F00803002B03D0BB6802
:1031EC00B3F5005FF2D1144BDB6803F00803002B3E
:1031FC0018D1114B9B6803F01003002B0FD10E4913
:10320C003A687B681343CB62FEF7EEFF0346002B54
:10321C0002D10023FB7307E00123FB7304E00023BE
:10322C00FB7301E00023FB73034BFF225A62FB7B11
:10323C0018461037BD4680BD0028004080B483B0CE
:10324C0000AF78600B46FB70194BCA225A62184BC0
:10325C0053225A62FB78002B10D01549144B9A68F4
:10326C007B6823F0040313438B601149104B1A6CD9
:10327C007B6803F0040313430B6411E00C490C4B03
:10328C009A687B6823F00403DB4313408B60084986
:10329C00074B1A6C7B6803F00403DB4313400B648D
:1032AC00034BFF225A6200BF0C37BD4680BC7047EF
:1032BC000028004080B485B000AF78600023FB7319
:1032CC000023BB600A4BDA680A4B1340BB60BA6838
:1032DC007B681340002B02D00123FB7301E0002319
:1032EC00FB73FB7B18461437BD4680BC704700BF90
:1032FC00002800407FFF010080B483B000AF7860ED
:10330C0008497A68084B134043F08003DA43054BB5
:10331C00DB6803F080031343CB6000BF0C37BD4662
:10332C0080BC7047002800407FFF010080B487B04C
:10333C0000AF78600023FB7500233B610023FB602A
:10334C00154B1B6C03F004033B61134B9A687B68B1
:10335C001A407B689B0C796821FA03F3D90B3B6903
:10336C000B401343FB600C4BDA687B681B09134062
:10337C003B61FB68002B06D03B699BB2002B02D053
:10338C000123FB7501E00023FB75FB7D18461C3700
:10339C00BD4680BC704700BF0028004080B485B09B
:1033AC0000AF78600023FB607B681B09FB60084959
:1033BC00FB689BB243F08003DA43054BDB6803F0F8
:1033CC0080031343CB6000BF1437BD4680BC7047ED
:1033DC000028004080B485B000AF0346FB71002389
:1033EC00FB7305E0FB7B0133FB73FB790A3BFB7141
:1033FC00FB79092BF6D8FB7B1B01DAB2FB79134363
:10340C00DBB218461437BD4680BC704780B485B01B
:10341C0000AF0346FB710023FB73FB791B09DBB286
:10342C001A46920013445B00FB73FB7903F00F0305
:10343C00DAB2FB7B1344DBB218461437BD4680BCB2
:10344C00704700BF98B500AF40F22551394801F0E4
:10345C00C7F90346002B33D0374B1B78DBB2FF2B5D
:10346C000CBF01230023DAB2344B1B78DBB2002BE8
:10347C000CBF01230023DBB21343DBB2002B05D0BE
:10348C002E4800F0BBF92C4B00221A7040F225514B
:10349C00284801F0FFF9284B1B78DBB21C46254865
:1034AC0000F0A5FF0346DAB2244B1A55224B1B78C9
:1034BC00DBB20133DAB2204B1A70214B01221A70A5
:1034CC0040F225311B4801F08BF90346002B2ED01E
:1034DC00194B1B78DBB2FF2B0CBF01230023DAB294
:1034EC00164B1B78DBB2002B0CBF01230023DBB285
:1034FC001343DBB2002B05D0104800F07FF90E4BC4
:10350C0000221A700C4B1B78DBB21C46094800F0E9
:10351C006EFF0346DAB2094B1A55074B1B78DBB228
:10352C000133DAB2044B1A70054B01221A7000BF3A
:10353C0098BD00BF00380140D0050020D405002004
:10354C00C505002098B500AF40F22551384801F070
:10355C0047F90346002B30D0364B1B78DBB2FF2BE0
:10356C000CBF01230023DAB2334B1B78DBB2002BE8
:10357C000CBF01230023DBB21343DBB2002B05D0BD
:10358C002D4800F03BF92B4B00221A7040F22551CC
:10359C00274801F07FF9274B1B78DBB21C462448E7
:1035AC0000F025FF0346DAB2234B1A55214B1B784A
:1035BC00DBB20133DAB21F4B1A7040F225311C48D2
:1035CC0001F00EF90346002B30D01A4B1B78DBB2FE
:1035DC00FF2B0CBF01230023DAB2174B1B78DBB295
:1035EC00002B0CBF01230023DBB21343DBB2002BF7
:1035FC0005D0114800F002F90E4B00221A7040F26F
:10360C0025510B4801F046F90A4B1B78DBB21C46DE
:10361C00074800F0ECFE0346DAB2074B1A55054B8F
:10362C001B78DBB20133DAB2024B1A7000BF98BDC3
:10363C0000440040C4050020C404002080B58AB0BA
:10364C0000AF7860022387F82430002387F82630F7
:10365C00002387F82730032387F825300023BB820B
:10366C000023FB8200233B830023BB830C237B833F
:10367C007B683C4A93422AD101210120FDF76EFD63
:10368C0007220921384801F02AFC07220A21364872
:10369C0001F025FC4FF400733B6207F1200319463F
:1036AC00314801F0A5FA4FF480633B6207F1200327
:1036BC0019462D4801F09CFA01214FF48040FDF78A
:1036CC006BFD4FF461433B6125233B732BE07B681F
:1036DC00264A934227D101210120FDF73FFD072205
:1036EC000221214801F0FBFB072203211E4801F0B7
:1036FC00F6FB04233B6207F1200319461A4801F03C
:10370C0077FA08233B6207F120031946164801F0AB
:10371C006FFA01214FF40030FDF75CFD4FF461436B
:10372C003B6126233B7307F110031946786800F0C0
:10373C00C3FC00237B730023BB730123FB7307F1D2
:10374C000C031846FEF704FA0121786800F0C3FD5B
:10375C00012240F22551786800F0D0FF00BF2837D5
:10376C00BD4680BD003801400000024000440040CE
:10377C0080B483B000AF03463960FB7100BF3B6877
:10378C001B889BB203F04003002BF8D0FB799AB254
:10379C003B689A8000BF0C37BD4680BC704780B533
:1037AC0082B000AF7860396008E07B681B783968BC
:1037BC001846FFF7DDFF7B6801337B607B681B7865
:1037CC00002BF2D100BF0837BD4680BD80B584B058
:1037DC0000AF786039600023FB733968786803F0B8
:1037EC00EFFF0346002B02D00123FB7301E0002303
:1037FC00FB73FB7B18461037BD4680BD80B485B08B
:10380C0000AF78600023FB8107E0FB897A681344E2
:10381C0000221A70FB890133FB81FB897A681344FF
:10382C001B78DBB2002BF0D100BF1437BD4680BC37
:10383C00704700BF80B485B000AF03463960FB8091
:10384C000123BB600023FB7320E0FB7B3A68D1189B
:10385C00FB881248BA68B0FBF2F2B3FBF2F002FB41
:10386C0000F29A1A42F21070BB68B0FBF3F3B2FB91
:10387C00F3F3DBB23033DBB20B70BA6813469B0048
:10388C0013445B00BB60FB7B0133FB73FB7B042BA2
:10389C00DBD900BF1437BD4680BC7047A086010041
:1038AC0080B485B000AF03463960FB80B7F90630B1
:1038BC00002B05DA3B682D221A70FB885B42FB80DB
:1038CC00FB881B099BB2FB73FB7B632B0AD9FB7B2D
:1038DC00344AA2FB03235B09DBB23033DAB23B6818
:1038EC001A7002E03B6830221A703B68581CFB7B54
:1038FC002D4AA2FB0323DB08DAB22B4BA3FB0213EA
:10390C00D9080B469B000B445B00D31ADBB2303357
:10391C00DBB203703B68981CFA7B234BA3FB0213AE
:10392C00D9080B469B000B445B00D31ADBB2303337
:10393C00DBB20370FB88BB60BB6803F00F03BB609A
:10394C00BB6840F2712202FB03F3BB603B6803339C
:10395C002E221A703B680433BA681449A1FB021278
:10396C009209D2B23032D2B21A703B68581DBB6881
:10397C000C4AA2FB032359090B4BA3FB0123DA08C6
:10398C0013469B0013445B00CA1AD3B23033DBB22C
:10399C0003703B68063300221A7000BF1437BD4613
:1039AC0080BC70471F85EB51CDCCCCCCD34D621075
:1039BC0080B487B000AFF860B9601346FB71002388
:1039CC007B611FE0FB685A1CFA601B78FB74FB7C64
:1039DC001B09BB74FB7C03F00F037B747B695A1CC3
:1039EC007A611A46BB681344BA7C0C498A5C1A701B
:1039FC007B695A1C7A611A46BB6813447A7C074966
:103A0C008A5C1A70FB795A1EFA71002BDAD17B6929
:103A1C0018461C37BD4680BC704700BF3C000020D8
:103A2C0090B587B000AFF860B9607A60B86803F001
:103A3C0041FD0346BB75F86803F03CFD0346DCB260
:103A4C00786803F037FD0346DBB2E31A7B75BB7D68
:103A5C00FB7560E0FB7DFA6813441B78462B8CBF2A
:103A6C0001230023DAB2FB7DF9680B441B78602B31
:103A7C0094BF01230023DBB21340DBB21946FB7D5C
:103A8C00FA6813441B782F2B94BF01230023DBB25D
:103A9C000B43002B01D0082342E0FB7DFA68134452
:103AAC001B78392B8CBF01230023DAB2FB7DF9681C
:103ABC000B441B78402B94BF01230023DBB2134033
:103ACC00DBB2002B01D008232AE0FB7DFA681344FB
:103ADC001B78602B94BF01230023DAB2FB7DF968BD
:103AEC000B441B78462B8CBF01230023DBB2134005
:103AFC00DBB21946FB7DFA6813441B78662B8CBF2E
:103B0C0001230023DBB20B43002B01D0082307E079
:103B1C00FB7D0133FB75FA7D7B7D9A429AD3092399
:103B2C0018461C37BD4690BD80B500AF184B194ADE
:103B3C001A60174B1B681B68174A93421ED8144B0C
:103B4C001B681B68002B07D1144B154A1A601449CB
:103B5C00104801F00DFA18E00D4B1B681B680A3376
:103B6C001A46104B1A600F4B1B680C4A13600D4B16
:103B7C001B681946074801F0FBF906E0074B084A99
:103B8C001A600749034801F0F3F900BF80BD00BF7C
:103B9C00C004002064000808330A0808BC04002094
:103BAC0070000808CC05002080B582B000AF7860AA
:103BBC00FFF7BAFF274B1B68A721184601F01AFA2A
:103BCC00244B1B6801331A467B685B7819461046F8
:103BDC0001F010FA1F4B1B6802331A467B689B7866
:103BEC001946104601F006FA1A4B1B6803331A46A5
:103BFC007B68DB781946104601F0FCF9154B1B6805
:103C0C0004331A467B681B791946104601F0F2F909
:103C1C00104B1B6805331A467B685B7919461046B6
:103C2C0001F0E8F90B4B1B6806331A467B689B794D
:103C3C001946104601F0DEF9064B1B6808331A468C
:103C4C007B681B891946104601F0B2F900BF083792
:103C5C00BD4680BDBC04002080B483B000AF0023FF
:103C6C00BB71104B104A1A600023FB7110E00D4B16
:103C7C001B681B78A72B03D1BB790133BB7101E007
:103C8C00BB7909E0094A074B1A60FB790133FB71D8
:103C9C00FB79F92BEBD9BB7918460C37BD4680BCA8
:103CAC00704700BFBC04002070000808E40400202A
:103CBC0080B500AF054B064A1A60044B1B68002107
:103CCC00184601F055F900BF80BD00BFC0040020AC
:103CDC006400080880B582B000AFFA23FB71254B55
:103CEC00254A1A60234B1B680021184601F082F903
:103CFC00204B1B6801330021184601F07BF91D4B4A
:103D0C001B6802330021184601F074F9194B1B682B
:103D1C0003330021184601F06DF9164B1B68043370
:103D2C000021184601F066F9124B1B68053300217F
:103D3C00184601F05FF90F4B1B680633002118463B
:103D4C0001F058F90B4B1B6808330021184601F0A1
:103D5C002FF90A4A074B1A60FB795A1EFA71002B8D
:103D6C00C0D10549064801F003F900BF0837BD462C
:103D7C0080BD00BFBC04002070000808E4040020D3
:103D8C006400080880B483B000AF786039607B6849
:103D9C00174A1360164B1B681A783B681A70144B41
:103DAC001B685A783B685A70114B1B689A783B68B1
:103DBC009A700F4B1B68DA783B68DA700C4B1B68F7
:103DCC001A793B681A710A4B1B685A793B685A710D
:103DDC00074B1B689A793B689A71054B1B681A89CB
:103DEC003B681A8100BF0C37BD4680BC704700BFD2
:103DFC00BC04002080B483B000AF7860174A174B26
:103E0C005B6A43F020035362154B41F641721A85ED
:103E1C00134A7B68D362124A114B9B8A9BB243F0C4
:103E2C0001039BB293820E4A0D4B1B889BB243F04D
:103E3C0009039BB2138000BF094B1B889BB203F094
:103E4C000103002BF8D1054A044B5B6A23F02003D5
:103E5C00536200BF0C37BD4680BC7047003802402F
:103E6C000014004080B483B000AF7860174A174B41
:103E7C005B6A43F020035362154BA1221A85144A46
:103E8C007B68D362124A124B9B8A9BB243F00103AC
:103E9C009BB293820E4A0E4B1B889BB243F00903D4
:103EAC009BB2138000BF0A4B1B889BB203F001032B
:103EBC00002BF8D1054A054B5B6A23F020035362B3
:103ECC0000BF0C37BD4680BC704700BF00380240B5
:103EDC000014004080B483B000AF7860104A104BDF
:103EEC005B6A43F0100353620E4B41F641721A8524
:103EFC000C4A7B68D3620B4A0A4B9B8A9BB243F0F9
:103F0C0001039BB29382074A064B1B889BB243F07A
:103F1C0009039BB2138000BF0C37BD4680BC7047B1
:103F2C00003802400010004080B400AF0A4A0A4B2F
:103F3C001B889BB223F001039BB21380064B00221B
:103F4C005A62064A054B5B6A23F01003536200BFAA
:103F5C00BD4680BC704700BF0010004000380240D6
:103F6C0080B483B000AF7860104A104B5B6A43F0AA
:103F7C00080353620E4B41F641721A850C4A7B685A
:103F8C00D3620B4A0A4B9B8A9BB243F001039BB250
:103F9C009382074A064B1B889BB243F009039BB2E2
:103FAC00138000BF0C37BD4680BC70470038024000
:103FBC00000C004080B400AF0A4A0A4B1B889BB22D
:103FCC0023F001039BB21380064B00225A62064A6F
:103FDC00054B5B6A23F01003536200BFBD4680BCE7
:103FEC00704700BF000C00400038024080B500AFA5
:103FFC00FDF762FE01F012F90023184680BD0000A7
:10400C0080B582B000AF78607B68264A93420AD1B3
:10401C0001214FF48040FDF719F900214FF4804045
:10402C00FDF714F93AE07B681F4A93420AD101214B
:10403C004FF40030FDF728F900214FF40030FDF764
:10404C0023F92BE07B68194A93420AD101214FF4E2
:10405C008020FDF719F900214FF48020FDF714F9A9
:10406C001CE07B68124A93420AD101214FF40020D4
:10407C00FDF70AF900214FF40020FDF705F90DE0DA
:10408C007B680C4A934209D101214FF48010FDF753
:10409C00FBF800214FF48010FDF7F6F800BF08374D
:1040AC00BD4680BD0038014000440040004800403F
:1040BC00004C00400050004080B58AB000AF7860E2
:1040CC00396000237B6200233B620023FB610023E9
:1040DC00BB617B681B8A9BB27B627B6A23F4405377
:1040EC007B623B68DB881A467B6A13437B627B6A84
:1040FC009AB27B681A827B689B899BB27B627B6AD3
:10410C0023F4B05323F00C037B623B689A883B6822
:10411C001B8913439AB23B685B8913439BB21A46C3
:10412C007B6A13437B627B6A9AB27B689A817B6859
:10413C009B8A9BB27B627B6A23F440737B623B68F5
:10414C009B891A467B6A13437B627B6A9AB27B68B3
:10415C009A8207F108031846FCF7D4FE7B682E4AB6
:10416C00934202D17B693B6201E03B693B627B6815
:10417C009B899BB21BB2002B0CDA3A6A13469B004C
:10418C0013449A001A443B681B685B00B2FBF3F3C0
:10419C00FB610BE03A6A13469B0013449A001A44E5
:1041AC003B681B689B00B2FBF3F3FB61FB691B4A8A
:1041BC00A2FB03235B091B017B627B6A1B09642244
:1041CC0002FB03F3FA69D31ABB617B689B899BB230
:1041DC001BB2002B0CDABB69DB0032330F4AA2FB9B
:1041EC0003235B0903F007037A6A13437B620BE03A
:1041FC00BB691B013233094AA2FB03235B0903F0A1
:10420C000F037A6A13437B627B6A9AB27B681A81CA
:10421C0000BF2837BD4680BD003801401F85EB51DB
:10422C0080B483B000AF78607B684FF416521A608C
:10423C007B6800229A807B680022DA807B680022EF
:10424C001A817B680C225A817B6800229A8100BFFC
:10425C000C37BD4680BC704780B485B000AF786029
:10426C0039600023FB607B681B8A9BB2FB60FB6898
:10427C0023F47063FB603B681A883B685B881343CC
:10428C009AB23B689B8813439AB23B68DB88134312
:10429C009BB21A46FB681343FB60FB689AB27B68BF
:1042AC001A8200BF1437BD4680BC704780B483B0FF
:1042BC0000AF78607B6800221A807B6800225A80ED
:1042CC007B6800229A807B680022DA8000BF0C3762
:1042DC00BD4680BC704780B483B000AF78600B469D
:1042EC00FB70FB78002B08D07B689B899BB243F456
:1042FC0000539AB27B689A8107E07B689B899BB2DA
:10430C0023F400539AB27B689A8100BF0C37BD46E8
:10431C0080BC704780B483B000AF78600B46FB70F4
:10432C007B681B8B9BB223F0FF039AB27B681A83CA
:10433C007B681B8B9AB2FB789BB213439AB27B6857
:10434C001A8300BF0C37BD4680BC704780B483B065
:10435C0000AF78600B46FB70FB78002B0AD07B68B3
:10436C009B899BB26FEA43436FEA53439AB27B68D3
:10437C009A8107E07B689B899BB2C3F30E039AB2C8
:10438C007B689A8100BF0C37BD4680BC704780B4F7
:10439C0083B000AF78600B46FB70FB78002B08D025
:1043AC007B689B8A9BB243F400639AB27B689A82C7
:1043BC0007E07B689B8A9BB223F400639AB27B680C
:1043CC009A8200BF0C37BD4680BC704780B483B066
:1043DC0000AF78600B467B807B88C3F308039AB2EE
:1043EC007B689A8000BF0C37BD4680BC704780B498
:1043FC0083B000AF78607B689B889BB2C3F30803E3
:10440C009BB218460C37BD4680BC704780B483B055
:10441C0000AF78600B46FB707B681B8A9BB223F065
:10442C000F039AB27B681A827B681B8A9AB2FB785C
:10443C009BB213439AB27B681A8200BF0C37BD46FD
:10444C0080BC704780B483B000AF78600B46FB70C3
:10445C00FB78002B08D07B689B899BB243F002034E
:10446C009AB27B689A8107E07B689B899BB223F0A8
:10447C0002039AB27B689A8100BF0C37BD4680BCA0
:10448C00704780B483B000AF78600B467B807B684C
:10449C009B899BB223F400639AB27B689A817B68F8
:1044AC009B899AB27B8813439AB27B689A8100BF2E
:1044BC000C37BD4680BC704780B483B000AF7860C9
:1044CC000B467B807B681B8A9BB223F020039AB23D
:1044DC007B681A827B681B8A9AB27B8813439AB2D8
:1044EC007B681A8200BF0C37BD4680BC704780B415
:1044FC0083B000AF78600B46FB70FB78002B08D0C4
:10450C007B681B8A9BB243F480439AB27B681A8205
:10451C0007E07B681B8A9BB223F480439AB27B68CA
:10452C001A8200BF0C37BD4680BC704780B483B084
:10453C0000AF78607B689B899BB243F001039AB211
:10454C007B689A8100BF0C37BD4680BC704780B435
:10455C0083B000AF78600B46FB70FB78002B08D063
:10456C007B689B8A9BB243F008039AB27B689A8261
:10457C0007E07B689B8A9BB223F008039AB27B68A6
:10458C009A8200BF0C37BD4680BC704780B483B0A4
:10459C0000AF78600B46FB707B681B8B9BB2DBB269
:1045AC009AB27B681A837B681B8B9AB2FB789BB29E
:1045BC001B029BB213439AB27B681A8300BF0C3761
:1045CC00BD4680BC704780B483B000AF78600B46AA
:1045DC00FB70FB78002B08D07B689B8A9BB243F066
:1045EC0020039AB27B689A8207E07B689B8A9BB215
:1045FC0023F020039AB27B689A8200BF0C37BD4629
:10460C0080BC704780B483B000AF78600B46FB7001
:10461C00FB78002B08D07B689B8A9BB243F010037D
:10462C009AB27B689A8207E07B689B8A9BB223F0E4
:10463C0010039AB27B689A8200BF0C37BD4680BCCF
:10464C00704780B483B000AF78600B467B807B688A
:10465C009B8A9BB223F004039AB27B689A827B6894
:10466C009B8A9AB27B8813439AB27B689A8200BF6A
:10467C000C37BD4680BC704780B483B000AF786007
:10468C000B46FB70FB78002B08D07B689B8A9BB297
:10469C0043F002039AB27B689A8207E07B689B8A9C
:1046AC009BB223F002039AB27B689A8200BF0C374C
:1046BC00BD4680BC704780B483B000AF78600B46B9
:1046CC007B8013467B707B78002B08D07B689B8AA1
:1046DC009AB27B8813439AB27B689A8209E07B6812
:1046EC009B8A9AB27B88DB439BB213409AB27B685D
:1046FC009A8200BF0C37BD4680BC704780B487B02F
:10470C0000AF78600B467B8013467B7000233B61C7
:10471C000023FB600023BB6000237B617B687B6113
:10472C007B88DBB25B09DBB23B617B8803F01F0348
:10473C00FB600122FB6802FA03F3BB603B69012BAF
:10474C0003D17B690C337B6109E03B69022B03D1FC
:10475C007B6910337B6102E07B6914337B617B786E
:10476C00002B06D07B697A691168BA680A431A6013
:10477C0006E07B697A691168BA68D2430A401A600C
:10478C0000BF1C37BD4680BC704780B485B000AFFD
:10479C0078600B467B800023FB737B681B889AB286
:1047AC007B8813409BB2002B02D00123FB7301E0EA
:1047BC000023FB73FB7B18461437BD4680BC704747
:1047CC0080B483B000AF78600B467B807B88DB4382
:1047DC009AB27B681A8000BF0C37BD4680BC70470C
:1047EC0080B487B000AF78600B467B800023FB6001
:1047FC0000237B610023BB600023FB747B88DBB24E
:10480C005B09DBB2BB607B8803F01F037B61012279
:10481C007B6902FA03F37B61BB68012B07D17B68D0
:10482C009B899BB21A467B6913407B6111E0BB6884
:10483C00022B07D17B681B8A9BB21A467B691340FB
:10484C007B6106E07B689B8A9BB21A467B691340AE
:10485C007B617B881B0A9BB2FB600122FB6802FA1E
:10486C0003F3FB607B681B889BB21A46FB68134002
:10487C00FB607B69002B05D0FB68002B02D0012369
:10488C00FB7401E00023FB74FB7C18461C37BD460F
:10489C0080BC704780B485B000AF78600B467B80DD
:1048AC000023FB810023BB817B881B0AFB81FB89D6
:1048BC00012202FA03F3BB81BB89DB439AB27B680A
:1048CC001A8000BF1437BD4680BC704780B584B0D9
:1048DC0000AF786039607B682C4A934204D1012187
:1048EC000120FCF73BFC3DE07B68294A934204D154
:1048FC0001210220FCF732FC34E07B68254A93420C
:10490C0004D101210420FCF729FC2BE07B68224A0E
:10491C00934204D101210820FCF720FC22E07B68A3
:10492C001E4A934204D101211020FCF717FC19E018
:10493C007B681B4A934204D101214020FCF70EFCFA
:10494C0010E07B68174A934204D101218020FCF7C8
:10495C0005FC07E07B68144A934203D10121202017
:10496C00FCF7FCFB3B68BB6001233B730023BB7370
:10497C000023FB7303237B7307F108031946786844
:10498C0000F036F900BF1037BD4680BD0000024074
:10499C000004024000080240000C024000100240DB
:1049AC0000180240001C02400014024080B584B084
:1049BC0000AFF860B9601346FB71FB79002B06D091
:1049CC00BB689BB21946F86800F035FA05E0BB6885
:1049DC009BB21946F86800F03CFA00BF1037BD4690
:1049EC0080BD80B584B000AF786039607B682D4A9B
:1049FC00934204D101210120FCF7B0FB3DE07B6820
:104A0C00294A934204D101210220FCF7A7FB34E090
:104A1C007B68264A934204D101210420FCF79EFBBB
:104A2C002BE07B68224A934204D101210820FCF739
:104A3C0095FB22E07B681F4A934204D10121102090
:104A4C00FCF78CFB19E07B681B4A934204D10121D3
:104A5C004020FCF783FB10E07B68184A934204D19A
:104A6C0001218020FCF77AFB07E07B68144A934213
:104A7C0003D101212020FCF771FB3B68BB600023B4
:104A8C003B730023BB730023FB7303237B7307F17E
:104A9C0008031946786800F0ABF800BF1037BD4624
:104AAC0080BD00BF0000024000040240000802402C
:104ABC00000C02400010024000180240001C024092
:104ACC000014024080B582B000AF786039603B685A
:104ADC009BB21946786800F060F90346002B01D0B0
:104AEC00012300E0002318460837BD4680BD00BFF7
:104AFC0080B582B000AF78607B68354A934208D1AC
:104B0C0001210120FCF784FB00210120FCF780FB34
:104B1C0059E07B682F4A934208D101210220FCF70F
:104B2C0077FB00210220FCF773FB4CE07B682A4AE0
:104B3C00934208D101210420FCF76AFB00210420D8
:104B4C00FCF766FB3FE07B68244A934208D10121C5
:104B5C000820FCF75DFB00210820FCF759FB32E034
:104B6C007B681F4A934208D101211020FCF750FBAF
:104B7C0000211020FCF74CFB25E07B68194A93427E
:104B8C0008D101214020FCF743FB00214020FCF719
:104B9C003FFB18E07B68144A934208D10121802026
:104BAC00FCF736FB00218020FCF732FB0BE07B6826
:104BBC000E4A934207D101212020FCF729FB00214A
:104BCC002020FCF725FB00BF0837BD4680BD00BF89
:104BDC00000002400004024000080240000C0240A9
:104BEC000010024000180240001C02400014024059
:104BFC0080B487B000AF7860396000237B610023FC
:104C0C003B610023FB600023BB6000237B6181E0E0
:104C1C0001227B6902FA03F33B613B681A683B692A
:104C2C001340FB60FA683B699A4270D17B681B6841
:104C3C00BB607B695B00032202FA03F3DB43BA68B7
:104C4C001340BB603B681B791A467B695B0002FA18
:104C5C0003F3BA681343BB607B68BA681A603B689D
:104C6C001B79012B03D03B681B79022B35D17B6858
:104C7C009B68BB607B695B00032202FA03F3DB4396
:104C8C00BA681340BB603B685B791A467B695B0072
:104C9C0002FA03F3BA681343BB607B68BA689A6084
:104CAC007B689B889BB2BB607B699BB21A460123D5
:104CBC009340DB43BA681340BB603B689B791A4650
:104CCC007B699BB202FA03F39BB21A46BB6813438F
:104CDC00BB60BB689AB27B689A807B68DB68BB6000
:104CEC007B699BB25B00032202FA03F3DB43BA68D5
:104CFC001340BB603B68DB791A467B695B0002FAA8
:104D0C0003F3BA681343BB607B68BA68DA607B69EB
:104D1C0001337B617B690F2B7FF67AAF00BF1C37A9
:104D2C00BD4680BC704780B483B000AF78607B68B0
:104D3C004FF6FF721A607B6800221A717B680022A2
:104D4C005A717B6800229A717B680022DA7100BF6D
:104D5C000C37BD4680BC704780B485B000AF78601E
:104D6C000B467B804FF48033FB607A88FB681343DF
:104D7C00FB60FA687B68DA617A887B68DA61FA68CA
:104D8C007B68DA617B68DB69FB607B68DB69FB60F5
:104D9C0000BF1437BD4680BC704780B485B000AFEF
:104DAC0078600B467B800023FB737B681B8A9AB26E
:104DBC007B8813409BB2002B02D00123FB7301E0D4
:104DCC000023FB73FB7B18461437BD4680BC704731
:104DDC0080B483B000AF78607B681B8A9BB21846A6
:104DEC000C37BD4680BC704780B485B000AF78608E
:104DFC000B467B800023FB737B689B8A9AB27B8873
:104E0C0013409BB2002B02D00123FB7301E0002363
:104E1C00FB73FB7B18461437BD4680BC704780B4CF
:104E2C0083B000AF78607B689B8A9BB218460C37C6
:104E3C00BD4680BC704780B483B000AF78600B4631
:104E4C007B807B687A881A8300BF0C37BD4680BC98
:104E5C00704780B483B000AF78600B467B807B6872
:104E6C007A885A8300BF0C37BD4680BC704780B42B
:104E7C0083B000AF78600B467B8013467B707B78E9
:104E8C00002B03D07B687A881A8302E07B687A88CF
:104E9C005A8300BF0C37BD4680BC704780B483B0CA
:104EAC0000AF78600B467B807B687A889A8200BF63
:104EBC000C37BD4680BC704780B483B000AF7860BF
:104ECC000B467B807B689B8A9AB27B8853409AB254
:104EDC007B689A8200BF0C37BD4680BC704780B49B
:104EEC0085B000AF78600B467B8013467B70002347
:104EFC00FB600023BB607A787B8803F007039B0080
:104F0C0002FA03F3FB607B88DB089BB218467B88B4
:104F1C00DB089BB21A467B68083253F822207B8848
:104F2C0003F007039B000F2101FA03F3DB4302EAB2
:104F3C0003017B6800F1080243F822107B88DB0830
:104F4C009BB21A467B68083253F82220FB68134345
:104F5C00BB607B88DB089BB21A467B680832B96859
:104F6C0043F8221000BF1437BD4680BC704700BF09
:104F7C0080B584B000AF786039607B680A4A934290
:104F8C000DD97B68094A934209D800F0B7FD3968FE
:104F9C00786800F0C4FF0346FB7300F0C7FD00BF48
:104FAC001037BD4680BD00BFFFFF0708FF3F080854
:104FBC0080B584B000AF78600B467B807B680B4A71
:104FCC0093420ED97B680A4A93420AD800F096FDA8
:104FDC007B881946786800F045FF0346FB7300F0A8
:104FEC00A5FD00BF1037BD4680BD00BFFFFF070801
:104FFC00FF3F080880B584B000AF78600B46FB70AB
:10500C007B680B4A93420ED97B680A4A93420AD8B2
:10501C0000F074FDFB781946786800F0D7FE034663
:10502C00FB7300F083FD00BF1037BD4680BD00BF91
:10503C00FFFF0708FF3F080880B586B000AF0121CD
:10504C004FF08050FCF7C6F8012001F0C5FC02209F
:10505C0001F0F4FD0346002B05D0022001F008FE00
:10506C00FDF7C2F83EE00120FCF768F80020FCF7E1
:10507C0065F80120FBF746FE00BF4920FCF7A2F9BA
:10508C000346002BF9D04FF48030FCF715F80120C3
:10509C00FCF744F8FDF7A8F80023FB607F233B6185
:1050AC00FF237B6107F10C031846FCF7EFFF40234D
:1050BC00FB7217233B723B237B722D23BB7207F1D0
:1050CC00080319460020FDF723F90123BB710123C6
:1050DC007B7106233B710023FB713B1D194600209D
:1050EC00FDF718FA4FF48070FEF706F900BF183779
:1050FC00BD4680BD80B588B000AF786000214FF40C
:10510C008070FDF727FC07F1180319460020FDF706
:10511C009EF93B7E1A464FF4616303FB02F27B7EE1
:10512C0019460B461B015B1A9B001344BA7E1344B1
:10513C001A467B681344FB61FB7EFB72FB69344AA5
:10514C00A2FB0323D90A334BA3FB01231A091346F1
:10515C005B001344DB00CA1AD3B23B723B7A1A468B
:10516C004FF4616303FB02F31A46FB699B1A2A4A4C
:10517C00A2FB03235909284BA3FB01235A0913460D
:10518C001B019B1A9B00CA1AD3B27B723B7A1A463C
:10519C004FF4616303FB02F31A46FB699A1A7B7A9C
:1051AC0019460B461B015B1A9B00D11A1A4BA3FB29
:1051BC0001235A0913461B019B1A9B00CA1AD3B22E
:1051CC00BB721F233B7500233B614FF00043FB6018
:1051DC0007F108031A464FF480710020FDF78EFA90
:1051EC00012001F045FD4FF48070FEF785F8012198
:1051FC004FF48050FEF722F801214FF48070FDF738
:10520C00A9FB01F003FD00BF2037BD4680BD00BFE8
:10521C00C5B3A291ABAAAAAA8988888880B584B0A4
:10522C0000AF0023FB73FFF707FF08216948FFF766
:10523C004DFB4FF400416848FFF748FB4FF4004129
:10524C006448FFF7CEFB6548FEF7F8F94FF40041D0
:10525C006048FFF737FC0346002B20D001220821C1
:10526C005C48FFF7A3FB01224FF400415A48FFF7BB
:10527C009DFB00BF4FF400415648FFF723FC03464B
:10528C00002BF7D1FBF7B0F8002208215148FFF7AB
:10529C008DFB00224FF400414F48FFF787FB0022A3
:1052AC0008214C48FFF782FB00224FF400414A488A
:1052BC00FFF77CFBFAF772FF03460C2B05D101229A
:1052CC0008214448FFF772FB05E001224FF400412E
:1052DC004148FFF76BFB42494248FEF760FA4FF436
:1052EC007A714148FAF792FF40494148FBF782FB3B
:1052FC0040494148FBF77EFB40494148FBF77AFBAC
:10530C0040494148FBF776FB40494148FBF772FBAB
:10531C0032494048FEF743FAFB7B063B0C2B4FD837
:10532C0001A252F823F000BFB1530008CD5300087E
:10533C00CD530008CD530008CD530008CD530008C1
:10534C00CD530008CD530008CD530008BF530008BF
:10535C009553000869530008A35300083B461F49A6
:10536C001846FEF71CFA1D492B48FEF718FA3B4667
:10537C002A49184600F0BEFA0346002B01D000F073
:10538C000DF90023FB7324E014492548FEF707FAB6
:10539C000023FB731DE011492248FEF700FA00239D
:1053AC00FB7316E00D492048FEF7F9F90023FB7357
:1053BC000FE00A491D48FEF7F2F90023FB7308E0E1
:1053CC003B46194647F2305000F032F80346FB7367
:1053DC0000BFA1E70004024000000240004400406E
:1053EC0000380140987D0008A47D0008AC7D0008C1
:1053FC00B87D0008C87D0008CC7D0008DC7D000865
:10540C00E47D0008F47D0008F87D0008087E0008A3
:10541C000C7E00081C7E0008347E0008387E0008D4
:10542C00407E0008507E00085C7E0008647E000808
:10543C0080B582B000AF786039602948FEF7DEF99C
:10544C0028492948FEF7ABF97868FEF743FD274950
:10545C002348FEF7BBF90346002B09D0386800F04F
:10546C004FF81F48FEF7CAF9FEF75EFD112333E033
:10547C001F491B48FEF7AAF90346002B06D0184813
:10548C00FEF7BCF9FEF750FD102325E0194914482E
:10549C00FEF79CF90346002B06D01148FEF7AEF937
:1054AC00FEF742FD122317E013490D48FEF78EF963
:1054BC000346002B06D00A48FEF7A0F9FEF734FD90
:1054CC00062309E00D4B1B889BB203F00103002B54
:1054DC00BDD1FEF729FD0F2318460837BD4680BD08
:1054EC00D405002000380140707E0008807E000842
:1054FC00407E0008507E00085C7E000800100040D2
:10550C0080B586B000AF78607868FEF777F9214AED
:10551C0007F10C0392E8030083E803000023FB75FA
:10552C000023BB756420FEF765FCBB7D07F11802F8
:10553C00134413F80C2CFB7D1749CB5CDBB29A425D
:10554C0002D1BB7D0133BB75FB7D0133FB75BB7D8C
:10555C00072BEAD9FB7D0133FB75FB7D0133FB7512
:10556C000023BB75BB7D7A681344FA7D0A498A5CBB
:10557C00D2B21A70BB7D0133BB75FB7D0133FB7559
:10558C00FB7D054AD35CDBB20D2BEBD100BF18378A
:10559C00BD4680BD8C7E0008D405002080B586B049
:1055AC0000AF0023FB730023FB750023BB751E2388
:1055BC003B614E494E48FEF7F2F8FB7D112B0BD0A8
:1055CC00112B04DC062B6FD0102B74D079E0122B2E
:1055DC0067D0662B72D074E0BB7D063B0C2B56D883
:1055EC0001A252F823F000BF8F5600089B5600080A
:1055FC009B5600089B5600089B5600089B560008BB
:10560C009B5600089B5600089B56000895560008B0
:10561C008356000829560008895600083B46354930
:10562C00184600F067F90346002B06D01E233B6199
:10563C000023FB750023BB751AE03B462E49184628
:10564C0000F058F90346002B06D000F05BF81E233F
:10565C003B610023BB750BE03B462849184600F024
:10566C0049F90346002B03D000233B616623FB75ED
:10567C000023BB7514E00023BB7511E00023BB7540
:10568C000EE00023BB750BE00023BB7508E03B4626
:10569C00194647F23050FFF7CBFE0346BB7500BFEF
:1056AC0015E00023FB7512E043F69820FEF7A2FBF1
:1056BC000023FB750BE00023FB7508E000233B6126
:1056CC0005E00C48FBF7BEF90346FB7500BF3B69D0
:1056DC005A1E3A61002B7FF470AF04490848FEF75C
:1056EC005EF800BF1837BD4680BD00BF00440040C7
:1056FC00987E0008A87E0008B07E0008B87E0008DE
:10570C00C07E0008B0B592B000AF002387F83B30E4
:10571C00002387F84730002387F846306D4B3B64F5
:10572C001E23FB636C4B3C1D1D460FCD0FC42B6819
:10573C0023706A496A48FEF732F807F130031946BC
:10574C00386CFEF71FFB97F83030A72B29D197F850
:10575C00363087F8283097F8353087F8293097F8A5
:10576C00343087F82A3097F8313087F82B3097F897
:10577C00323087F82C3097F8333087F82D303B8F48
:10578C001B0A9BB2DBB287F82E303B8FDBB287F85B
:10579C002F30391D07F1280308221846FEF708F9A7
:1057AC0002E06D2387F8473097F84730112B0BD068
:1057BC00112B04DC062B5ED0102B64D074E0122B62
:1057CC0055D06D2B63D06FE097F84630063B0C2B11
:1057DC0041D801A252F823F053580008635800082E
:1057EC0063580008635800086358000863580008A1
:1057FC006358000863580008635800085B58000899
:10580C0043580008195800084B58000807F11803B2
:10581C003449184600F06EF80346002B04D01E23C2
:10582C00FB633B6C0A333B64002387F84630002350
:10583C0087F847301AE0002387F8463016E000233B
:10584C0087F8463012E0002387F846300EE000233C
:10585C0087F846300AE007F11803194647F2305032
:10586C00FFF7E6FD034687F8463000BF24E000232F
:10587C0087F8473020E043F69820FEF7BBFA002368
:10588C0087F8473018E0002387F8473014E01648B3
:10589C00FBF7D8F8034687F8473010491348FDF753
:1058AC007EFF0023FB6307E03B1D1846FBF7CAF89D
:1058BC00034687F8473000BFFB6B5A1EFA63002B78
:1058CC007FF43BAF05490A48FDF769FF00BF483735
:1058DC00BD46B0BD70000808247F0008004400409D
:1058EC00D07E0008E87E0008F07E0008F87E0008F4
:1058FC00147F000880B584B000AF78603960002355
:10590C00FB733968786801F05BFF0346002B02D00B
:10591C000123FB7301E00023FB73FB7B184610375C
:10592C00BD4680BD80B485B000AF78600023FB60BD
:10593C00094B1B68FB60FB6823F00103FB60FA68F2
:10594C007B681343FB60044AFB68136000BF143789
:10595C00BD4680BC704700BF003C024080B483B0A1
:10596C0000AF0346FB71FB79002B06D0084A084BAD
:10597C001B6843F00203136005E0054A044B1B68E7
:10598C0023F00203136000BF0C37BD4680BC704788
:10599C00003C024080B483B000AF0346FB71FB793E
:1059AC00002B06D0084A084B1B6843F00403136015
:1059BC0005E0054A044B1B6823F00403136000BF89
:1059CC000C37BD4680BC7047003C024080B483B0AD
:1059DC0000AF0346FB71FB79002B06D0084A084B3D
:1059EC001B6843F00803136005E0054A044B1B6871
:1059FC0023F00803136000BF0C37BD4680BC704712
:105A0C00003C024080B500AF074B5B6803F002031B
:105A1C00002B07D000F072F8034B044A1A61024BBA
:105A2C00034A1A6100BF80BD003C0240BFAE9D8C92
:105A3C001615141380B400AF044A044B5B6843F092
:105A4C000203536000BFBD4680BC7047003C02405F
:105A5C0080B584B000AF78600423FB734FF4004032
:105A6C0000F088FF0346FB73FB7B042B20D1134A09
:105A7C00124B5B6843F400735360104A0F4B5B6826
:105A8C0043F0080353607B6800221A604FF4004017
:105A9C0000F070FF0346FB73084A084B5B6823F069
:105AAC0008035360054A054B5B6823F4007353608D
:105ABC00FB7B18461037BD4680BD00BF003C024042
:105ACC0080B584B000AF786039600423FB734FF469
