:020000040800F2
:100000000040002069A80008B1A80008B1A80008B5
:10001000B1A80008B1A80008B1A8000800000000BD
:10002000000000000000000000000000B1A800086F
:10003000B1A8000800000000B1A80008B1A800089D
:10004000B1A80008B1A80008B1A80008B1A800082C
:10005000B1A80008B1A8000881A500089BA5000868
:10006000B5A50008CFA50008E9A50008B1A80008BB
:10007000B1A80008B1A80008B1A80008B1A80008FC
:10008000B1A80008B1A80008B1A80008B1A80008EC
:10009000B1A80008B1A80008B1A8000803A600088C
:1000A00000000000B1A80008B1A80008B1A800082D
:1000B000B1A80008B1A80008B1A80008B1A80008BC
:1000C000B1A80008B1A80008B1A80008B1A80008AC
:1000D000B1A80008A5510008A5520008B1A8000861
:1000E0006DA60008B1A80008B1A80008B1A80008D2
:1000F000B1A800080000000000000000000000009F
:1001000000000000000000000000000000000000EF
:1001100000000000000000000000000000000000DF
:1001200000000000000000000000000000000000CF
:0C01300000000000000000005FF808F173
:10013C0010B5054C237833B9044B13B10448AFF315
:10014C0000800123237010BD7C04002000000000FF
:10015C00ACAF00080C4B43B10C4810B50C49AFF3D5
:10016C0000800C48036823B910BD0A48036833B9F2
:10017C007047094B002BF7D0BDE810401847064BD1
:10018C00002BF5D0184700BF00000000ACAF0008F2
:10019C00800400207C0400200000000080B58AB0A0
:1001AC0002AF0023FB770023BB77744BBB61744910
:1001BC00744805F09EF9714805F07CFDFB7F013B0E
:1001CC000E2B00F2C48001A252F823F01502000895
:1001DC00330300085B030008390300085B030008C5
:1001EC005B0300085B0300085B0300085B0300086B
:1001FC005B0300085B0300085B0300085B0300085B
:10020C004303000851030008BB7F033B0C2B7CD835
:10021C0001A252F823F000BF59020008C5020008E1
:10022C00F5020008E1020008D302000817030008D9
:10023C0067020008FB0200081703000817030008F8
:10024C001703000817030008090300084C494E481F
:10025C0005F04FF90023BB7764E049494B4805F0A2
:10026C0048F93B1D4649184605F043F944494848AE
:10027C0005F03FF9414BBB613B1D4649184605F063
:10028C004FF90346002B06D03D49434805F031F9A0
:10029C0000F092F80DE03B1D4049184605F040F97E
:1002AC000346002B05D036493D4805F022F90023C2
:1002BC00BB610023BB7735E000F0F2FD0023BB7778
:1002CC000023FB772EE000F0EBFD0023BB7700232F
:1002DC00FB7727E03A1D07F114031146184600F08E
:1002EC00E9FC0346BB771DE00023FB771AE000F026
:1002FC00D7FD0023FB770023BB7713E000F0D0FD84
:10030C000023BB770023FB770CE007F114023B1DA5
:10031C0000931346234A2449244800F019FC034651
:10032C00BB7700BF1BE00023FB7718E000F0B8FDA3
:10033C000023FB7713E000F0ADFA00F04DFA002338
:10034C00FB770CE000F0ACFD0023FB7707E01848CE
:10035C0005F0FEF800F0DEF90346FB7700BFBB6941
:10036C005A1EBA61002B7FF429AF0549114805F0DC
:10037C00C0F800BF2037BD4680BD00BF20A10700DC
:10038C0000440040C4AF0008DCAF0008F4AF000824
:10039C0008B000080CB0000814B0000830B0000819
:1003AC0038B0000850B0000854B000085CB0000829
:1003BC00D405002064B00008B0B594B002AF934BE4
:1003CC0007F114041D460FCD0FC42B6823700023B6
:1003DC0087F84730002387F846308D4B3B648D4BB4
:1003EC00FB638D498D4805F084F83B461946386C03
:1003FC0005F072FB3B78A72B1CD1BB793B737B7947
:10040C007B733B79BB737B78FB73BB783B74FB785A
:10041C007B743B891B0A9BB2DBB2BB743B89DBB29E
:10042C00FB7407F1140107F10C030822184605F0C0
:10043C0069F902E0FE2387F8473097F84730042B20
:10044C0000F0B280042B05DC012B0DD0022B00F048
:10045C00A780C4E00F2B00F0B580FE2B00F0B88015
:10046C000E2B00F0A780BAE097F84630033B0C2B1C
:10047C0000F2858001A252F823F000BFBD040008F1
:10048C00230500085F05000847050008350500082E
:10049C008B050008D7040008670500088B050008C9
:1004AC008B0500088B0500088B05000879050008F2
:1004BC003B6C0A333B645849594805F01AF8554BC4
:1004CC00FB63002387F8463069E03B6C0A333B64DE
:1004DC005149544805F00DF807F128034E491846C8
:1004EC0005F007F84C49504805F003F8494BFB63FD
:1004FC0007F128034D49184605F012F80346002B66
:10050C0005D00023FB634449494804F0F2FF002363
:10051C0087F8463043E000F0C3FC002387F84630F0
:10052C00002387F847303AE000F0BAFC002387F844
:10053C004630002387F8473031E007F1280207F1F5
:10054C0038031146184600F0B5FB034687F84630D1
:10055C0025E0002387F8473021E000F0A1FC0023C0
:10056C0087F84730002387F8463018E000F098FCF5
:10057C00002387F84630002387F847300FE007F157
:10058C00380207F1140007F1280300931346294A97
:10059C00294900F0DDFA034687F8463000BF27E012
:1005AC00002387F8473023E000F07AFC002387F81B
:1005BC0047301DE000F06EF900F00EF9002387F8CB
:1005CC00473015E000F06CFC002387F847300FE053
:1005DC0011491A4804F08DFF0023FB6308E018480A
:1005EC0004F0B6FF00F096F8034687F8473000BFDA
:1005FC00FB6B5A1EFA63002B7FF4F7AE06491148C9
:10060C0004F077FF00BF4837BD46B0BD04B1000809
:10061C007000080820A107000044004078B00008D2
:10062C0090B00008F4AF000808B00008ACB00008A7
:10063C00B4B0000850B0000854B00008D0B00008A6
:10064C00D4050020ECB0000880B500AF134804F0CE
:10065C009FFE4FF48071124806F044FF01224FF4C4
:10066C0080710F4806F0AEFFFA2005F06DFA0D48C8
:10067C0004F06EFF09490C4804F03BFF0B4B0C4A8D
:10068C001A604FF47A710B4800F016F80346002BF1
:10069C0001D10C2300E00B23184680BD003801402B
:1006AC0000000240D405002018B10008C805002045
:1006BC000000080828B1000880B584B000AF78604D
:1006CC0039600123FB73386805F0AEFA142005F08D
:1006DC003BFA79680D4804F023FF0346002B06D043
:1006EC000023FB73094804F033FF05F0C7FA084BED
:1006FC001B889BB203F00103002BE7D105F0BEFA77
:10070C00FB7B18461037BD4680BD00BFD4050020CA
:10071C000010004080B500AF2749284804F0E9FEDE
:10072C0043F6982005F080FA142005F00DFA2449C0
:10073C00244804F0F5FE0346002B06D0214804F0B3
:10074C0007FF05F09BFA012333E01F491D4804F015
:10075C00E7FE0346002B06D01A4804F0F9FE05F01C
:10076C008DFA022325E01949164804F0D9FE0346F8
:10077C00002B06D0134804F0EBFE05F07FFA04239F
:10078C0017E013490F4804F0CBFE0346002B06D0AC
:10079C000C4804F0DDFE05F071FA0E2309E00D4B58
:1007AC001B889BB203F00103002BBDD105F066FA48
:1007BC000F23184680BD00BF0038014030B100083F
:1007CC0040B10008D40500204CB1000858B1000815
:1007DC0068B100080010004080B500AF234804F059
:1007EC00B7FE2349234804F084FE41F288312248A5
:1007FC00FFF762FF1E49214804F07BFE204B1B686B
:10080C0011331B49184604F074FE19491D4804F0B5
:10081C0070FE41F288311848FFF74EFF14491A4810
:10082C0004F067FE164B1B6822331149184604F07E
:10083C0060FE0F49134804F05CFE41F288310E480B
:10084C00FFF73AFF0A49114804F053FE41F2883190
:10085C000948FFF731FF06490D4804F04AFE41F202
:10086C0088310548FFF728FF00BF80BDD405002064
:10087C000038014078B1000890B1000898B1000828
:10088C00C8050020A8B10008ACB10008BCB1000834
:10089C00D0B1000880B582B000AF634B634A1A60D8
:1008AC00634804F075FD6249624804F022FE5E4B19
:1008BC001B6810330021184607F010FE5A4B1B68BA
:1008CC0021330021184607F009FE574B1B684233B1
:1008DC000021184607F002FE574804F039FE97E055
:1008EC005649554804F01CFE0346002B45D054498C
:1008FC00514804F015FE0346002B00F08980504A45
:10090C004E494D4804F036FF0346092B2DD10723E1
:10091C00FB7117E0444B1A68FB79073B1033134407
:10092C0001331846FB79444AD35CDBB2194607F015
:10093C00D5FDFB79162B02D13F4804F009FEFB795B
:10094C000133FB71FB79162BE4D939493D4804F08E
:10095C00D0FD354B1B6811333549184604F0C9FDE1
:10096C003349374804F0C5FD52E03149364804F0AC
:10097C00C0FD314804F0ECFD4AE034492E4804F047
:10098C00CFFD0346002B43D02D492B4804F0C8FD66
:10099C000346002B3CD02A4A2C49274804F0EAFE97
:1009AC000346092B2DD10723FB7117E01E4B1A6848
:1009BC00FB79073B2033134402331846FB791E4A5C
:1009CC00D35CDBB2194607F089FDFB79262B02D1EB
:1009DC00194804F0BDFDFB790133FB71FB79262B23
:1009EC00E4D913491A4804F084FD0F4B1B682233D9
:1009FC000F49184604F07DFD0D49114804F079FDAE
:100A0C0006E00B49104804F074FD0B4804F0A0FDFF
:100A1C001049094804F084FD0346002B3FF460AFF5
:100A2C0000BF0837BD4680BDC8050020000008087F
:100A3C0000440040E4B10008C404002010B20008D7
:100A4C00A8B1000818B2000824B2000834B200089B
:100A5C003CB2000848B2000880B483B000AF002359
:100A6C00BB7100237B7100233B711D4B1D4A1A6027
:100A7C000023FB710AE01A4B1A68FB7913445A7C69
:100A8C00BB791343BB71FB790133FB71FB790F2BE2
:100A9C00F1D90023FB710BE0114B1A68FB7913445D
:100AAC0093F822207B7913437B71FB790133FB7123
:100ABC00FB791F2BF0D9BB79002B03D03B7943F08A
:100ACC0001033B717B79002B03D03B7943F002038C
:100ADC003B713B7918460C37BD4680BC704700BF54
:100AEC00C80500200000080880B582B000AF164B86
:100AFC00164A1A600023FB710CE0134B1A68FB7941
:100B0C001033134401330021184607F0E7FCFB793E
:100B1C000133FB71FB790F2BEFD90023FB710CE038
:100B2C00094B1A68FB792033134402330021184611
:100B3C0007F0D4FCFB790133FB71FB791F2BEFD948
:100B4C0000BF0837BD4680BDC8050020000008085E
:100B5C0080B584B000AFF860B9607A603B604948FA
:100B6C0004F0F6FC4849494804F0C3FC4649B8680F
:100B7C0004F0BFFC4449786804F0BBFC4249F868B7
:100B8C0004F0B7FC4049424804F0B3FC47F2305043
:100B9C0005F04AF8142004F0D7FF3E49394804F018
:100BAC00BFFC0346002B06D0364804F0D1FC05F000
:100BBC0065F8032361E03849324804F0B1FC034680
:100BCC00002B0AD0B969386800F006F92D4804F0FA
:100BDC00BFFC05F053F809234FE03049294804F0D5
:100BEC009FFC0346002B06D0264804F0B1FC05F010
:100BFC0045F8042341E02A49224804F091FC0346BD
:100C0C00002B06D01F4804F0A3FC05F037F807238F
:100C1C0033E024491B4804F083FC0346002B06D028
:100C2C00184804F095FC05F029F8062325E01E4928
:100C3C00144804F075FC0346002B06D0114804F050
:100C4C0087FC05F01BF8052317E018490D4804F044
:100C5C0067FC0346002B06D00A4804F079FC05F02B
:100C6C000DF80A2309E0124B1B889BB203F0010319
:100C7C00002B8FD105F002F80F2318461037BD4614
:100C8C0080BD00BFD40500200038014050B20008E0
:100C9C00A8B1000858B2000864B2000858B10008A6
:100CAC006CB2000878B2000880B2000890B200085C
:100CBC000010004080B582B000AF7860396047F218
:100CCC00305004F0B1FF142004F03EFF39493A488B
:100CDC0004F026FC0346002B06D0374804F038FC01
:100CEC0004F0CCFF032361E03449334804F018FCD2
:100CFC000346002B0AD03968786800F06DF82E484E
:100D0C0004F026FC04F0BAFF09234FE02C492A48D2
:100D1C0004F006FC0346002B06D0274804F018FC10
:100D2C0004F0ACFF042341E02649234804F0F8FB0F
:100D3C000346002B06D0204804F00AFC04F09EFF6A
:100D4C00072333E020491C4804F0EAFB0346002B40
:100D5C0006D0194804F0FCFB04F090FF062325E0B4
:100D6C001A49154804F0DCFB0346002B06D0124848
:100D7C0004F0EEFB04F082FF052317E014490E4843
:100D8C0004F0CEFB0346002B06D00B4804F0E0FB2E
:100D9C0004F074FF0A2309E00E4B1B889BB203F08E
:100DAC000103002B8FD104F069FF0F23184608377D
:100DBC00BD4680BD58B20008D405002064B20008BE
:100DCC0058B100086CB2000878B2000880B2000874
:100DDC0090B200080010004080B584B000AF78607D
:100DEC0039602D4A07F1080392E8030018600433B8
:100DFC0019800023FB730023BB73642004F0A4FE52
:100E0C00BB7B07F11002134413F8082CFB7B23491E
:100E1C00CB5CDBB29A4202D1BB7B0133BB73FB7B55
:100E2C000133FB73BB7B052BEAD9FB7B0133FB73D3
:100E3C000023BB73BB7B7A681344FA7B17498A5C2B
:100E4C00D2B21A70BB7B0133BB73FB7B0133FB73D8
:100E5C00FB7B124AD35CDBB2202BEBD1FB7B013347
:100E6C00FB730023BB73BB7B3A681344FA7B0B49BF
:100E7C008A5CD2B21A70BB7B0133BB73FB7B013330
:100E8C00FB73FB7B054AD35CDBB20D2BEBD100BFB4
:100E9C001037BD4680BD00BF64B20008D4050020E9
:100EAC0080B500AF00224FF48071074806F08AFB32
:100EBC00642004F049FEFFF7C7FBFFF78DFC0348E5
:100ECC0004F046FB00BF80BD00000240D4050020AA
:100EDC0080B400AF134A134B1B6843F48073136048
:100EEC001049104B9A68104B13408B600D4A0D4BF8
:100EFC001B6823F0885323F001131360094A094B34
:100F0C001B6823F480231360064A064B9B6823F46A
:100F1C007D039360034B0022DA6000BFBD4680BCAA
:100F2C00704700BF003802400CC0FF8880B582B00B
:100F3C0000AF0346FB71FB79002B09D0FB79012B29
:100F4C0006D0FB79052B03D0F721064805F03AF8BB
:100F5C00054B00221A70044AFB79137000BF083746
:100F6C00BD4680BDA4B200080238024080B582B0F4
:100F7C0000AF00233B600023FB710023BB713120C9
:100F8C0000F08EFE0346BB713B6801333B603B684F
:100F9C00B3F5A04F02D0BB79002BF0D0312000F07C
:100FAC007FFE0346002B02D00123FB7101E00023DE
:100FBC00FB71FB7918460837BD4680BD80B582B001
:100FCC0000AF0346FB71FB793F2B04D940F2331180
:100FDC00044804F0F7FF044AFB79137000BF08378C
:100FEC00BD4680BDA4B200080738024080B584B06D
:100FFC0000AF78600023FB607B68002B1CD07B6803
:10100C00B3F5005F18D07B68B3F5804F14D07B68C4
:10101C00B3F5C04F10D07B68B3F5004F0CD07B6894
:10102C00B3F5204F08D07B68B3F5404F04D040F2A5
:10103C004F110A4804F0C6FF094B5B68FB60FB6864
:10104C0023F46043FB60FA687B681343FB60044A3B
:10105C00FB68536000BF1037BD4680BDA4B20008CA
:10106C000038024080B582B000AF0346FB71FB79BB
:10107C00002B07D0FB79012B04D040F273110548EB
:10108C0004F0A0FF044AFB79136000BF0837BD468B
:10109C0080BD00BFA4B200082000474280B584B0D8
:1010AC0000AF0346FB710023FB60FB791F2B04D9B7
:1010BC0040F287110A4804F085FF0A4B5B68FB601D
:1010CC00FB6823F4F853FB60FB791B02FA681343AB
:1010DC00FB60044AFB68536000BF1037BD4680BDFF
:1010EC00A4B200080038024080B582B000AF0346BD
:1010FC00FB71FB79002B07D0FB79012B04D040F25C
:10110C00A711054804F05EFF044AFB79136000BF89
:10111C000837BD4680BD00BFA4B20008000047429E
:10112C0080B582B000AF0346FB71FB79002B0AD06F
:10113C00FB79012B07D0FB79052B04D04FF4E1711F
:10114C00064804F03FFF064B00221A70044AFB7954
:10115C00137000BF0837BD4680BD00BFA4B20008A5
:10116C003538024080B582B000AF0346FB71FB7985
:10117C00002B07D0FB79012B04D04FF4ED710548FF
:10118C0004F020FF044AFB79136000BF0837BD460A
:10119C0080BD00BFA4B200088006474280B582B073
:1011AC0000AF0346FB710B46BB7113467B71FB7999
:1011BC00002B07D0FB79012B04D040F209211F48EA
:1011CC0004F000FFBB79002B1CD0BB79042B19D089
:1011DC00BB79082B16D0BB790C2B13D0BB79102BF9
:1011EC0010D0BB79142B0DD0BB79182B0AD0BB793E
:1011FC001C2B07D0BB79202B04D040F20A210F48BE
:10120C0004F0E0FE7B79402B0AD07B79802B07D051
:10121C007B79C02B04D040F20B21084804F0D2FE9D
:10122C000749BA797B791343DAB2FB791343DBB202
:10123C000B7000BF0837BD4680BD00BFA4B20008CC
:10124C000A38024080B582B000AF0346FB71FB79CF
:10125C00002B07D0FB79012B04D040F21E2105484E
:10126C0004F0B0FE044AFB79136000BF0837BD469A
:10127C0080BD00BFA4B200086000474280B582B0B8
:10128C0000AF0346FB71FB79002B07D0FB79012BD8
:10129C0004D040F23121054804F094FE044AFB7955
:1012AC00136000BF0837BD4680BD00BFA4B2000864
:1012BC007000474280B582B000AF0346FB71FB79EA
:1012CC00002B07D0FB79012B04D040F23F210548BD
:1012DC0004F078FE044AFB79136000BF0837BD4662
:1012EC0080BD00BFA4B20008AC06474280B582B0F6
:1012FC0000AF03460A46FB711346BB71FB79002B0A
:10130C0019D0FB79012B16D0FB79022B13D0FB796A
:10131C00032B10D0FB79042B0DD0FB79052B0AD0B5
:10132C00FB79062B07D0FB79072B04D040F25D210B
:10133C00104804F047FEBB79002B10D0BB79102B62
:10134C000DD0BB79202B0AD0BB79302B07D0BB79C1
:10135C00402B04D040F25E21064804F033FE0649CF
:10136C00FA79BB791343DBB20B7000BF0837BD466B
:10137C0080BD00BFA4B200080B38024080B584B019
:10138C0000AF78600023FB607B68002B0DD07B687E
:10139C00012B0AD07B68022B07D07B68032B04D06F
:1013AC004FF435710A4804F00DFE0A4B9B68FB6044
:1013BC00FB6823F00303FB60FA687B681343FB6054
:1013CC00044AFB68936000BF1037BD4680BD00BF68
:1013DC00A4B200080038024080B400AF044B9B68F4
:1013EC00DBB203F00C03DBB21846BD4680BC704781
:1013FC000038024080B584B000AF78600023FB60F9
:10140C007B68002B1CD07B68802B19D07B68902BC1
:10141C0016D07B68A02B13D07B68B02B10D07B68C8
:10142C00C02B0DD07B68D02B0AD07B68E02B07D06B
:10143C007B68F02B04D040F20A310A4804F0C2FD5C
:10144C00094B9B68FB60FB6823F0F003FB60FA68B8
:10145C007B681343FB60044AFB68936000BF103742
:10146C00BD4680BDA4B200080038024080B584B0EF
:10147C0000AF78600023FB607B68002B14D07B6886
:10148C00B3F5806F10D07B68B3F5A06F0CD07B6880
:10149C00B3F5C06F08D07B68B3F5E06F04D040F2B1
:1014AC0029310A4804F08EFD094B9B68FB60FB68F0
:1014BC0023F4E063FB60FA687B681343FB60044A27
:1014CC00FB68936000BF1037BD4680BDA4B2000816
:1014DC000038024080B584B000AF78600023FB6018
:1014EC007B68002B14D07B68B3F5806F10D07B68C1
:1014FC00B3F5A06F0CD07B68B3F5C06F08D07B68D8
:10150C00B3F5E06F04D04FF452710B4804F05AFD60
:10151C000A4B9B68FB60FB6823F46053FB607B68A1
:10152C00DB00FA681343FB60044AFB68936000BF5E
:10153C001037BD4680BD00BFA4B200080038024081
:10154C0080B489B000AF78600023FB610023BB61DD
:10155C0000237B6100233B610023FB600023BB6005
:10156C005F4B9B6803F00C03FB61FB690C2B65D88C
:10157C0001A252F823F000BFB91500084916000863
:10158C004916000849160008D91500084916000824
:10159C004916000849160008E1150008491600080C
:1015AC004916000849160008E91500084C4B5B6801
:1015BC005B0B03F00703BB60BB6801334FF40042C5
:1015CC0002FA03F31A467B681A6047E07B68454AC7
:1015DC001A6043E07B68444A1A603FE0404B9B68CA
:1015EC0003F47013BB613E4B9B6803F440037B61B7
:1015FC00BB699B0C3D4AD35CDBB2BB617B699B0D29
:10160C0001337B61364B9B6803F480333B613B6950
:10161C00002B09D1BB69334A02FB03F27B69B2FB95
:10162C00F3F27B681A6019E0BB692F4A02FB03F2E4
:10163C007B69B2FBF3F27B681A600FE0284B5B68A6
:10164C005B0B03F00703BB60BB6801334FF4004234
:10165C0002FA03F31A467B681A6000BF204B9B68A2
:10166C0003F0F003FB61FB691B09FB61204AFB697A
:10167C0013441B78DBB2FB607B681A68FB68DA40AA
:10168C007B685A60164B9B6803F4E063FB61FB6953
:10169C001B0AFB61164AFB6913441B78DBB2FB6027
:1016AC007B685A68FB68DA407B689A600C4B9B68D5
:1016BC0003F46053FB61FB69DB0AFB610C4AFB69B9
:1016CC0013441B78DBB2FB607B685A68FB68DA401A
:1016DC007B68DA6000BF2437BD4680BC704700BF12
:1016EC00003802400024F40000127A0000000020B0
:1016FC000C00002080B584B000AF78600023FB6044
:10170C007B68B3F5803F18D07B68B3F5003F14D0ED
:10171C007B68B3F5403F10D07B681C4A93420CD0D9
:10172C007B681B4A934208D07B681A4A934204D0C8
:10173C0040F20341184804F045FC7B6803F4403345
:10174C00B3F5403F0FD1154B1B68FB60FB6823F0D2
:10175C00C043FB607B6803F0C043FA681343FB6033
:10176C000E4AFB6813600D4A0C4B5B6B23F4403341
:10177C0053630A49094B5A6B7B6803F44033134398
:10178C004B6300BF1037BD4680BD00BF0000032077
:10179C000000034000000360A4B2000800380240BF
:1017AC0080B582B000AF0346FB71FB79002B07D0EC
:1017BC00FB79012B04D040F22541054804F002FCD2
:1017CC00044AFB79136000BF0837BD4680BD00BFDB
:1017DC00A4B20008D806474280B582B000AF0346D9
:1017EC00FB71FB79002B07D0FB79012B04D040F265
:1017FC003541054804F0E6FB044AFB79136000BF51
:10180C000837BD4680BD00BFA4B20008DC064742C5
:10181C0080B582B000AF78600B46FB707A68164BCF
:10182C001340002B02D17B68002B04D140F25641AF
:10183C00124804F0C7FBFB78002B07D0FB78012B78
:10184C0004D040F257410D4804F0BCFBFB78002B50
:10185C0006D00B490A4BDA697B681343CB6106E06F
:10186C000749074BDA697B68DB431340CB6100BF48
:10187C000837BD4680BD00BF006FFFB4A4B200089E
:10188C000038024080B582B000AF78600B46FB7028
:10189C007B6823F4B44323F01D03002B02D17B6837
:1018AC00002B04D140F27941114804F08BFBFB78FA
:1018BC00002B07D0FB78012B04D040F27A410C4866
:1018CC0004F080FBFB78002B06D00A49094B1A6AFE
:1018DC007B6813430B6206E00649064B1A6A7B6869
:1018EC00DB4313400B6200BF0837BD4680BD00BF11
:1018FC00A4B200080038024080B582B000AF786016
:10190C000B46FB707A68164B1340002B02D17B6898
:10191C00002B04D14FF49561124804F053FBFB7873
:10192C00002B07D0FB78012B04D040F2A9410D48C5
:10193C0004F048FBFB78002B06D00B490A4B5A6A83
:10194C007B6813434B6206E00749074B5A6A7B6876
:10195C00DB4313404B6200BF0837BD4680BD00BF60
:10196C00C035014FA4B200080038024080B582B0E7
:10197C0000AF78600B46FB707A68164B1340002B57
:10198C0002D17B68002B04D140F2CE41124804F006
:10199C0019FBFB78002B07D0FB78012B04D040F20D
:1019AC00CF410D4804F00EFBFB78002B06D00B4901
:1019BC000A4B1A697B6813430B6106E00749074B16
:1019CC001A697B68DB4313400B6100BF0837BD46C7
:1019DC0080BD00BF006FFFB4A4B200080038024005
:1019EC0080B582B000AF78600B46FB707B6823F447
:1019FC00B44323F01D03002B02D17B68002B04D1D0
:101A0C0040F2EE41114804F0DDFAFB78002B07D0D0
:101A1C00FB78012B04D040F2EF410C4804F0D2FAD1
:101A2C00FB78002B06D00A49094B5A697B68134393
:101A3C004B6106E00649064B5A697B68DB43134051
:101A4C004B6100BF0837BD4680BD00BFA4B2000883
:101A5C000038024080B582B000AF78600B46FB7056
:101A6C007A68164B1340002B02D17B68002B04D1F3
:101A7C0040F21A51124804F0A5FAFB78002B07D05B
:101A8C00FB78012B04D040F21B510D4804F09AFA5C
:101A9C00FB78002B06D00B490A4B9A697B681343E1
:101AAC008B6106E00749074B9A697B68DB4313405F
:101ABC008B6100BF0837BD4680BD00BFC035014FEC
:101ACC00A4B200080038024080B582B000AF786044
:101ADC000B46FB707A68164B1340002B02D17B68C7
:101AEC00002B04D140F24551124804F06BFAFB78FC
:101AFC00002B07D0FB78012B04D040F246510D4847
:101B0C0004F060FAFB78002B06D00B490A4B9A6A5A
:101B1C007B6813438B6206E00749074B9A6A7B6824
:101B2C00DB4313408B6200BF0837BD4680BD00BF4E
:101B3C00006FFFB4A4B200080038024080B582B038
:101B4C0000AF78600B46FB707B6823F4B44323F042
:101B5C001D03002B02D17B68002B04D140F269518C
:101B6C00114804F02FFAFB78002B07D0FB78012BDF
:101B7C0004D040F26A510C4804F024FAFB78002B94
:101B8C0006D00A49094BDA6A7B681343CB6206E03C
:101B9C000649064BDA6A7B68DB431340CB6200BF15
:101BAC000837BD4680BD00BFA4B200080038024013
:101BBC0080B582B000AF78600B46FB707A68164B2C
:101BCC001340002B02D17B68002B04D140F29A51B8
:101BDC00124804F0F7F9FB78002B07D0FB78012BA7
:101BEC0004D040F29B510D4804F0ECF9FB78002B2B
:101BFC0006D00B490A4B1A6B7B6813430B6306E048
:101C0C000749074B1A6B7B68DB4313400B6300BF20
:101C1C000837BD4680BD00BFC035014FA4B20008D7
:101C2C000038024080B582B000AF03460A46FB7113
:101C3C001346BB7197F90730002B02DBFB79002BA5
:101C4C0004D140F2CF51144804F0BCF9BB79002BFD
:101C5C0007D0BB79012B04D04FF4BA610E4804F0C5
:101C6C00B1F9BB79002B08D00C490C4B1B78DAB2BC
:101C7C00FB791343DBB20B7009E00849074B1B7867
:101C8C00DAB2FB79DB43DBB21340DBB20B7000BF83
:101C9C000837BD4680BD00BFA4B200080D38024015
:101CAC0080B586B000AF0346FB710023FB600023B8
:101CBC007B610023FB74FB79212B2BD0FB79312B1F
:101CCC0028D0FB79292B25D0FB79392B22D0FB7915
:101CDC00492B1FD0FB79412B1CD0FB795A2B19D0E7
:101CEC00FB795B2B16D0FB795C2B13D0FB795D2B2E
:101CFC0010D0FB795E2B0DD0FB795F2B0AD0FB79D2
:101D0C00592B07D0FB794A2B04D040F2F9511348D8
:101D1C0004F058F9FB795B09DBB2FB60FB68012B23
:101D2C0003D10F4B1B687B6102E00D4B5B6B7B613E
:101D3C00FB7903F01F03FB607A69FB6822FA03F35B
:101D4C0003F00103002B02D00123FB7401E00023FC
:101D5C00FB74FB7C18461837BD4680BDA4B2000846
:101D6C000038024080B400AF044A044B5B6B43F074
:101D7C008073536300BFBD4680BC7047003802407F
:101D8C0080B584B000AF0346FB710023FB73FB7975
:101D9C00012B19D0FB79022B16D0FB79042B13D015
:101DAC00FB79082B10D0FB79102B0DD0FB79202B55
:101DBC000AD0FB79802B07D0FB79402B04D040F262
:101DCC003561094804F0FEF8084BDA68FB791340DA
:101DDC00002B02D00123FB7301E00023FB73FB7B80
:101DEC0018461037BD4680BDA4B20008003802402A
:101DFC0080B582B000AF0346FB71FB79002B04D198
:101E0C0040F25561044804F0DDF8044AFB79137084
:101E1C0000BF0837BD4680BDA4B200080E38024092
:101E2C0080B500AF01210120FFF7DAFD0021012070
:101E3C00FFF7D6FD00BF80BD80B400AF0C4B002275
:101E4C001A600B4B00225A60094B00229A60084B17
:101E5C000022DA60064B00221A61054B00225A61FF
:101E6C00034B00229A6100BFBD4680BC704700BF87
:101E7C00047C004080B582B000AF0346FB71FB7957
:101E8C00002B0CD0FB79012B09D0FB79022B06D04F
:101E9C00FB79032B03D09521044804F093F8044AF2
:101EAC00FB79136000BF0837BD4680BDF4B2000853
:101EBC000000014080B400AF034B1B6803F4407377
:101ECC001846BD4680BC70470000014080B582B00A
:101EDC0000AF0346FB71FB79002B06D0FB79012B7D
:101EEC0003D0B2210B4804F06DF8FB79002B06D01F
:101EFC00094A094B5B6843F00103536005E0064A4D
:101F0C00054B5B6823F00103536000BF0837BD46E7
:101F1C0080BD00BFF4B200080000014090B585B050
:101F2C0000AF03460A46FB711346BB710023FB60EE
:101F3C00FB79002B18D0FB79012B15D0FB79022BE8
:101F4C0012D0FB79032B0FD0FB79042B0CD0FB792F
:101F5C00062B09D0FB79072B06D0FB79052B03D078
:101F6C00CD21364804F02EF8BB79002B30D0BB794C
:101F7C00012B2DD0BB79022B2AD0BB79032B27D078
:101F8C00BB79042B24D0BB79052B21D0BB79062B34
:101F9C001ED0BB79072B1BD0BB79082B18D0BB7973
:101FAC00092B15D0BB790A2B12D0BB790B2B0FD078
:101FBC00BB790C2B0CD0BB790D2B09D0BB790E2B1C
:101FCC0006D0BB790F2B03D0CE211C4803F0FAFFAF
:101FDC00BB7903F003039B000F2202FA03F3FB60AF
:101FEC001749BB799B08DBB21846154ABB799B088D
:101FFC00DBB2023352F82320FB68DB431A40831C0C
:10200C0041F823200E48BB799B08DBB21C460C4AD6
:10201C00BB799B08DBB2023352F82320F979BB79E8
:10202C0003F003039B0001FA03F31A43A31C40F8CB
:10203C00232000BF1437BD4690BD00BFF4B200088A
:10204C000000014080B584B000AF78600023FB60D5
:10205C007B68002B0FD07B68B3F5803F0BD07B687F
:10206C00B3F5003F07D07B68B3F5403F03D0F621B2
:10207C000A4803F0A7FF0A4B1B68FB60FB6823F4BC
:10208C004033FB60FA687B681343FB60044AFB68CF
:10209C00136000BF1037BD4680BD00BFF4B200080E
:1020AC00047C004080B584B000AF786039600023B8
:1020BC00FB607B6823F47413002B02D17B68002B2C
:1020CC0004D140F223113E4803F07CFF3B68002B07
:1020DC0031D03B68012B2ED03B68022B2BD03B68B8
:1020EC00032B28D03B68042B25D03B68052B22D032
:1020FC003B68062B1FD03B68072B1CD03B68082B7A
:10210C0019D03B68092B16D03B680A2B13D03B68BF
:10211C000B2B10D03B680C2B0DD03B680D2B0AD031
:10212C003B680E2B07D03B680F2B04D04FF49271F9
:10213C00234803F047FF234B1B68FB60FA687B685E
:10214C001343FB607B6803F48023002B07D0FB68F0
:10215C0023F00F03FB60FA683B681343FB607B685A
:10216C0003F40023002B08D0FB6823F0F003FB6082
:10217C003B681B01FA681343FB607B6803F4801314
:10218C00002B08D0FB6823F47063FB603B681B02D8
:10219C00FA681343FB607B6803F40013002B08D030
:1021AC00FB6823F47043FB603B681B03FA68134322
:1021BC00FB60044AFB68136000BF1037BD4680BD4E
:1021CC00F4B20008047C004080B582B000AF7860A7
:1021DC000B46FB707B68012B0DD07B68022B0AD061
:1021EC007B68042B07D07B68082B04D04FF4B471A8
:1021FC00114803F0E7FEFB78002B07D0FB78012B8E
:10220C0004D040F269110C4803F0DCFEFB78002B83
:10221C0006D00A49094B1A687B6813430B6006E029
:10222C000649064B1A687B68DB4313400B6000BF02
:10223C000837BD4680BD00BFF4B20008007C0040EA
:10224C0080B582B000AF786039607B68B3F1806F85
:10225C000CD07B68B3F1006F08D07B68B3F1805F62
:10226C0004D040F28711114803F0ACFE3B68002B00
:10227C0007D03B68012B04D04FF4C4710B4803F01A
:10228C00A1FE3B68002B07D00949094B1A687B68F3
:10229C00DB4313400B6005E00549054B1A687B686E
:1022AC0013430B6000BF0837BD4680BDF4B2000875
:1022BC00007C004080B584B000AF78600B46FB70AA
:1022CC000023FB607B68944A934200F0F4807B68A7
:1022DC00924A934200F0EF807B68914A934200F05F
:1022EC00EA807B688F4A934200F0E5807B688E4AD7
:1022FC00934200F0E0807B688C4A934200F0DB80D4
:10230C007B688B4A934200F0D6807B68894A934263
:10231C0000F0D1807B68884A934200F0CC807B68C7
:10232C00864A934200F0C7807B68854A934200F04E
:10233C00C2807B68834A934200F0BD807B68824AEE
:10234C00934200F0B8807B68804A934200F0B380DF
:10235C007B687F4A934200F0AE807B68B3F1802F9C
:10236C0000F0A9807B687B4A934200F0A4807B68D4
:10237C00794A934200F09F807B68784A934200F040
:10238C009A807B68764A934200F095807B68754A08
:10239C00934200F090807B6813F1FF4F00F08B802C
:1023AC007B68B3F1014F00F086807B68B3F1024F7C
:1023BC0000F081807B68B3F1044F7CD07B68B3F173
:1023CC00084F78D07B68B3F1104F74D07B68B3F1B1
:1023DC00204F70D07B68B3F1404F6CD07B68624A61
:1023EC00934268D07B68012B65D07B68022B62D04E
:1023FC007B68042B5FD07B68082B5CD07B68102B30
:10240C0059D07B68202B56D07B68B3F1006F52D02B
:10241C007B68B3F1805F4ED07B68402B4BD07B68E0
:10242C00802B48D07B68B3F5807F44D07B68B3F1B8
:10243C00005F40D07B68B3F5007F3CD07B68B3F580
:10244C00806F38D07B68B3F5006F34D07B68B3F500
:10245C00004F30D07B68B3F5803F2CD07B68B3F550
:10246C00003F28D07B68B3F5802F24D07B68B3F570
:10247C00002F20D07B68B3F5801F1CD07B68B3F590
:10248C00001F18D07B68B3F5800F14D07B68B3F5B0
:10249C00000F10D07B68B3F1807F0CD07B68B3F158
:1024AC00007F08D07B68B3F1806F04D040F2B91183
:1024BC002E4803F087FD7B68DB0FFB607B6823F005
:1024CC0000437B60FB78002B10D0FB68002B06D000
:1024DC002749274B5A687B6813434B6018E0244903
:1024EC00234B9A687B6813438B6011E0FB68002BCD
:1024FC0007D01F491E4B5A687B68DB4313404B6067
:10250C0006E01B491A4B9A687B68DB4313408B60CF
:10251C0000BF1037BD4680BD010000800200008066
:10252C000400008008000080100000802000008063
:10253C0040000080800000800001008000020080CC
:10254C000004008000080080001000800020008043
:10255C000040008000000480000008800000108013
:10256C00000020800000408000000180F4B20008D0
:10257C00047C004080B582B000AF0346FB71FB7950
:10258C00002B07D0FB79012B04D04FF4F7710B48CB
:10259C0003F018FDFB79002B06D0094A084B5B6849
:1025AC0043F00043536005E0054A054B5B6823F09C
:1025BC000043536000BF0837BD4680BDF4B200082D
:1025CC00047C004080B582B000AF0346FB710B4623
:1025DC00BB801346BB71FB79012B16D0FB79022B08
:1025EC0013D0FB79032B10D0FB79042B0DD0FB7986
:1025FC00052B0AD0FB79062B07D0FB79072B04D0CF
:10260C0040F21721574803F0DDFCBB88002B04D1A6
:10261C004FF40671534803F0D5FCBB79002B07D05F
:10262C00BB79012B04D040F219214E4803F0CAFCAF
:10263C00FB79012B11D1BB79002B07D04A494A4BAE
:10264C00DA68BB88DB431340CB6086E04649464BD7
:10265C00DA68BB881343CB607FE0FB79022B13D184
:10266C00BB79002B08D040493F4BDA68BB88DB4371
:10267C001B041340CB6070E03B493B4BDA68BB88D2
:10268C001B041343CB6068E0FB79032B11D1BB799E
:10269C00002B07D03449344B1A69BB88DB431340F9
:1026AC000B615AE03049304B1A69BB8813430B61FC
:1026BC0053E0FB79042B13D1BB79002B08D02A49AA
:1026CC00294B1A69BB88DB431B0413400B6144E0A4
:1026DC002549254B1A69BB881B0413430B613CE04D
:1026EC00FB79052B11D1BB79002B07D01E491E4B52
:1026FC005A69BB88DB4313404B612EE01A491A4BD5
:10270C005A69BB8813434B6127E0FB79062B13D125
:10271C00BB79002B08D01449134B5A69BB88DB4397
:10272C001B0413404B6118E00F490F4B5A69BB88CF
:10273C001B0413434B6110E0BB79002B07D00A49F3
:10274C00094B9A69BB88DB4313408B6105E0064952
:10275C00054B9A69BB8813438B6100BF0837BD4694
:10276C0080BD00BFF4B20008047C004080B400AF10
:10277C00094B00221A60084B00225A60064B0022BB
:10278C009A60054B0022DA60034B6FF07F425A616E
:10279C0000BFBD4680BC70470004014080B584B0CA
:1027AC0000AF78600023FB607B681B79002B07D09F
:1027BC007B681B79042B03D085214A4803F002FC6B
:1027CC007B685B79082B0BD07B685B790C2B07D073
:1027DC007B685B79102B03D08621424803F0F2FB17
:1027EC007B681B6803F07F43002B03D17B681B685D
:1027FC00002B03D187213B4803F0E4FB7B689B79DA
:10280C00002B07D07B689B79012B03D0882135489E
:10281C0003F0D8FB344BFB607B689B79002B4FD0CB
:10282C003149314B1A687B681B68DB4313400B60E2
:10283C002D492D4B5A687B681B68DB4313404B605A
:10284C007B681B791A46FB681344FB60FB68FA68CB
:10285C0011687A6812680A431A602349224B9A68F5
:10286C007B681B68DB4313408B601F491E4BDA6887
:10287C007B681B68DB431340CB607B685B79102B58
:10288C000ED11949184B9A687B681B6813438B60EF
:10289C001549154BDA687B681B681343CB601DE048
:1028AC00114BFB607B685B791A46FB681344FB6039
:1028BC00FB68FA6811687A6812680A431A600DE0BE
:1028CC007B681B791A46FB681344FB60FB68FA684B
:1028DC0011687A681268D2430A401A6000BF103738
:1028EC00BD4680BD48B300080004014080B483B0ED
:1028FC0000AF78607B6800221A607B6800221A7136
:10290C007B680C225A717B6800229A7100BF0C37CD
:10291C00BD4680BC704780B582B000AF78607B68E4
:10292C0003F07F43002B02D17B68002B03D1CA211B
:10293C00064803F047FB0649054B1A697B681343AD
:10294C000B6100BF0837BD4680BD00BF48B300080F
:10295C000004014080B584B000AF78600023FB73A5
:10296C007B68012B58D07B68022B55D07B68042BDD
:10297C0052D07B68082B4FD07B68102B4CD07B68D7
:10298C00202B49D07B68402B46D07B68802B43D0D2
:10299C007B68B3F5807F3FD07B68B3F5007F3BD07D
:1029AC007B68B3F5806F37D07B68B3F5006F33D09D
:1029BC007B68B3F5805F2FD07B68B3F5005F2BD0BD
:1029CC007B68B3F5804F27D07B68B3F5004F23D0DD
:1029DC007B68B3F5803F1FD07B68B3F5003F1BD0FD
:1029EC007B68B3F5802F17D07B68B3F5002F13D01D
:1029FC007B68B3F5801F0FD07B68B3F5001F0BD03D
:102A0C007B68B3F5800F07D07B68B3F5000F03D05C
:102A1C00EA21094803F0D6FA084B5A697B6813403F
:102A2C00002B02D00123FB7301E00023FB73FB7B23
:102A3C0018461037BD4680BD48B30008000401405D
:102A4C0080B582B000AF78607B6803F07F43002BC9
:102A5C0002D17B68002B04D14FF48071044803F041
:102A6C00B1FA044A7B68536100BF0837BD4680BD8C
:102A7C0048B300080004014080B584B000AF786012
:102A8C000023FB737B68012B59D07B68022B56D03B
:102A9C007B68042B53D07B68082B50D07B68102BA1
:102AAC004DD07B68202B4AD07B68402B47D07B686D
:102ABC00802B44D07B68B3F5807F40D07B68B3F526
:102ACC00007F3CD07B68B3F5806F38D07B68B3F562
:102ADC00006F34D07B68B3F5805F30D07B68B3F582
:102AEC00005F2CD07B68B3F5804F28D07B68B3F5A2
:102AFC00004F24D07B68B3F5803F20D07B68B3F5C2
:102B0C00003F1CD07B68B3F5802F18D07B68B3F5E1
:102B1C00002F14D07B68B3F5801F10D07B68B3F501
:102B2C00001F0CD07B68B3F5800F08D07B68B3F521
:102B3C00000F04D04FF48871094803F043FA094B95
:102B4C005A697B681340002B02D00123FB7301E010
:102B5C000023FB73FB7B18461037BD4680BD00BFBE
:102B6C0048B300080004014080B582B000AF786023
:102B7C007B6803F07F43002B02D17B68002B04D1D0
:102B8C004FF49371044803F01DFA044A7B685361B7
:102B9C0000BF0837BD4680BD48B3000800040140A3
:102BAC0080B582B000AF78607B68B3F5E06F13D06E
:102BBC007B68B3F5C06F0FD07B68B3F5A06F0BD0FB
:102BCC007B68B3F5806F07D07B68B3F5407F03D08B
:102BDC007A21074803F0F6F9064A7B6843F0BF6395
:102BEC0043F40033D36000BF0837BD4680BD00BF3F
:102BFC0098B3000800ED00E080B584B000AF7860B9
:102C0C000023FB730023BB730F237B737B68DB7880
:102C1C00002B07D07B68DB78012B03D08E21324848
:102C2C0003F0D0F97B685B780F2B03D98F212E48EA
:102C3C0003F0C8F97B689B780F2B03D990212A48A5
:102C4C0003F0C0F97B68DB78002B39D0274BDB68AD
:102C5C00DB431B0ADBB203F00703FB73FB7BC3F103
:102C6C000403BB737A7BFB7B42FA03F37B737B68B5
:102C7C005B781A46BB7B02FA03F3FB737B689A788A
:102C8C007B7B1340DAB2FB7B1343FB73FB7B1B0197
:102C9C00FB73174A7B681B781344FA7B83F8002379
:102CAC00134A7B681B785B09DBB218467B681B7880
:102CBC0003F01F03012101FA03F342F820300FE067
:102CCC000B497B681B785B09DBB218467B681B7869
:102CDC0003F01F0301229A4000F1200341F8232046
:102CEC0000BF1037BD4680BD98B3000800ED00E072
:102CFC0000E100E080B582B000AF786039607B689D
:102D0C00B3F1005F07D07B68B3F1006F03D0B7213C
:102D1C000B4803F057F93B680A4A934203D9B82190
:102D2C00074803F04FF908493B6823F0604323F050
:102D3C007F037A6813438B6000BF0837BD4680BDA4
:102D4C0098B30008FEFF050000ED00E080B582B0EE
:102D5C0000AF03460A46FB711346BB71FB79102B7F
:102D6C0009D0FB79042B06D0FB79022B03D0CB21A5
:102D7C00104803F027F9BB79002B06D0BB79012B47
:102D8C0003D0CC210B4803F01DF9BB79002B06D0E6
:102D9C000949094B1A69FB7913430B6106E0064993
:102DAC00054B1A69FB79DB4313400B6100BF0837F5
:102DBC00BD4680BD98B3000800ED00E080B582B040
:102DCC0000AF78607B68042B07D07B6813F1050F8C
:102DDC0003D0E3210B4803F0F5F87B68042B06D1F4
:102DEC00094A094B1B6843F00403136005E0064ACB
:102DFC00054B1B6823F00403136000BF0837BD4666
:102E0C0080BD00BF98B3000810E000E080B584B02E
:102E1C0000AF00237B600023BB600023FB73364BA9
:102E2C00CA225A62344B53225A6200F0FFF803460E
:102E3C00002B02D10023FB7355E02F4B00221A60AC
:102E4C002D4B42F201125A602B4A2B4B9B6803F01C
:102E5C0007039360284BDB6803F00403BB607B68BB
:102E6C0001337B607B68B3F5005F02D0BB68002B3D
:102E7C00F0D0214BDB6803F00403002B02D10023BC
:102E8C00FB7330E01C4B9B681B4B00229A601A4B67
:102E9C004FF6FF725A61184B184A1A61164B0022F2
:102EAC009A61154B0022DA61134B00221A62124B05
:102EBC000022DA62104B0022DA630F4B00225A64B4
:102ECC000D4B00229A640C4B0022DA600A4B002254
:102EDC001A6400F0F1F80346002B02D10023FB73B7
:102EEC0001E00123FB73044BFF225A62FB7B184663
:102EFC001037BD4680BD00BF00280040FF007F009A
:102F0C0080B584B000AF78600023FB737B681B68CE
:102F1C00402B08D07B681B68002B04D040F2911129
:102F2C00244803F04FF87B685B687F2B04D94FF47F
:102F3C00C971204803F046F87B689B68B3F5004FD5
:102F4C0004D340F293111B4803F03CF81A4BCA22ED
:102F5C005A62194B53225A6200F068F80346002B50
:102F6C0002D10023FB731CE0134A134B9B6823F024
:102F7C00400393601049104B9A687B681B6813439D
:102F8C008B600D4A7B689B6813610B490A4B1A696D
:102F9C007B685B681B0413430B6100F07FF8012313
:102FAC00FB73054BFF225A62FB7B18461037BD465C
:102FBC0080BD00BFE0B300080028004080B483B09F
:102FCC0000AF78607B6800221A607B687F225A60B1
:102FDC007B68FF229A6000BF0C37BD4680BC7047EF
:102FEC0080B582B000AF0346FB71FB79002B07D094
:102FFC00FB79012B04D040F2D3110A4802F0E2FF16
:10300C00FB79002B03D0084BFF225A6205E0064BDC
:10301C00CA225A62044B53225A6200BF0837BD467B
:10302C0080BD00BFE0B300080028004080B485B02C
:10303C0000AF00237B600023FB730023BB60164BA7
:10304C00DB6803F04003002B1ED1134B4FF0FF3213
:10305C00DA60114BDB6803F04003BB607B68013323
:10306C007B607B68B3F5005F02D0BB68002BF0D0AF
:10307C00094BDB6803F04003002B02D00123FB73E8
:10308C0004E00023FB7301E00123FB73FB7B184678
:10309C001437BD4680BC70470028004080B400AF98
:1030AC00044A044BDB6823F08003D36000BFBD46A9
:1030BC0080BC70470028004080B485B000AF00236E
:1030CC007B600023FB730023BB60174BCA225A6240
:1030DC00154B53225A62144A134BDB6823F0A0039E
:1030EC00D360114BDB6803F02003BB607B680133BA
:1030FC007B607B68B3F5004F02D0BB68002BF0D02F
:10310C00094BDB6803F02003002B02D00123FB7377
:10311C0001E00023FB73044BFF225A62FB7B184631
:10312C001437BD4680BC70470028004080B584B081
:10313C0000AF0346FB710023FB73FB79002B07D018
:10314C00FB79012B04D040F25E21164802F03AFFC5
:10315C00154BCA225A62144B53225A62FFF766FF70
:10316C000346002B02D10023FB7313E0FB79002BE9
:10317C0006D00D4A0C4B9B6843F01003936005E09E
:10318C00094A094B9B6823F010039360FFF786FFF5
:10319C000123FB73044BFF225A62FB7B184610374A
:1031AC00BD4680BDE0B300080028004080B582B069
:1031BC0000AF0346FB71FB79002B07D0FB79012B89
:1031CC0004D04FF42371104802F0FCFE0F4BCA22BE
:1031DC005A620E4B53225A62FB79002B06D00B4AD3
:1031EC000A4B9B6843F02003936005E0074A074BAA
:1031FC009B6803F0DF039360044BFF225A6200BF0D
:10320C000837BD4680BD00BFE0B300080028004071
:10321C0090B585B000AF786039600023FB60002367
:10322C00FB727B68002B07D07B68012B04D040F22B
:10323C00C5217B4802F0C6FE7B68002B3FD1794B41
:10324C009B6803F04003002B1AD03B681B78002BC3
:10325C0003D03B681B780C2B04D940F2CB2170486F
:10326C0002F0B0FE3B68DB78002B15D03B68DB78B6
:10327C00402B11D04FF43371694802F0A3FE0BE0E0
:10328C003B680022DA703B681B78172B04D940F29C
:10329C00D121634802F096FE3B685B783B2B04D946
:1032AC0040F2D3215E4802F08DFE3B689B783B2BAD
:1032BC0055D94FF435715A4802F084FE4FE0594B02
:1032CC009B6803F04003002B1FD03B681B7818460B
:1032DC0001F0D6FD0346FB60FB68002B02D0FB68B7
:1032EC000C2B04D940F2DB214D4802F06BFE3B68FD
:1032FC00DB78002B19D03B68DB78402B15D04FF4D2
:10330C003771474802F05EFE0FE03B680022DA702E
:10331C003B681B78184601F0B3FD0346172B04D904
:10332C0040F2E1213E4802F04DFE3B685B781846C6
:10333C0001F0A6FD03463B2B04D940F2E3213848AB
:10334C0002F040FE3B689B78184601F099FD03465D
:10335C003B2B04D94FF43971314802F033FE7B68B2
:10336C00002B0FD03B681B781A043B685B781B0260
:10337C0013433A6892781A433B68DB781B04134377
:10338C00FB601BE03B681B78184601F05DFD0346B3
:10339C001C043B685B78184601F056FD03461B0283
:1033AC001C433B689B78184601F04EFD034644EAEB
:1033BC0003023B68DB781B041343FB60194BCA22E6
:1033CC005A62184B53225A62FFF730FE0346002B09
:1033DC0002D10023FB721BE0124AFB6803F07F331F
:1033EC0023F0FE431360FFF759FE0E4B9B6803F06E
:1033FC002003002B0AD1FFF75FFE0346002B02D1FE
:10340C000023FB7204E00123FB7201E00123FB7239
:10341C00044BFF225A62FB7A18461437BD4690BD06
:10342C00E0B300080028004080B483B000AF78609F
:10343C007B680022DA707B6800221A707B6800229D
:10344C005A707B6800229A7000BF0C37BD4680BC56
:10345C00704780B584B000AF786039600023FB60A2
:10346C007B68002B07D07B68012B04D040F23F31E6
:10347C00254802F0A7FD254B1B6803F07F3323F092
:10348C00FE43FB60FB681B0CDBB203F03F03DAB2BC
:10349C003B681A70FB681B0ADBB203F07F03DAB2DD
:1034AC003B685A70FB68DBB203F07F03DAB23B680F
:1034BC009A70FB681B0CDBB203F04003DAB23B687A
:1034CC00DA707B68002B1AD13B681B78184601F028
:1034DC00D7FC03461A463B681A703B685B78184663
:1034EC0001F0CEFC03461A463B685A703B689B7849
:1034FC00184601F0C5FC03461A463B689A7000BF9B
:10350C001037BD4680BD00BFE0B300080028004066
:10351C0080B483B000AF00237B60054B9B6A7B605B
:10352C00034B5B687B6818460C37BD4680BC704704
:10353C000028004090B585B000AF7860396000235A
:10354C00FB600023FB727B68002B07D07B68012B90
:10355C0004D04FF45E71774802F034FD7B68002B89
:10356C000ED13B685B7803F01003002B08D03B684E
:10357C005B7823F01003DBB20A33DAB23B685A7083
:10358C007B68002B23D13B68DB78632B04D94FF489
:10359C006071684802F016FD3B685B78002B03D025
:1035AC003B685B780C2B04D940F28131614802F006
:1035BC0009FD3B689B78002B03D03B689B781F2B45
:1035CC0036D940F282315B4802F0FCFC30E03B68BB
:1035DC00DB78184601F054FC0346632B04D940F207
:1035EC008631544802F0EEFC3B685B78184601F0DB
:1035FC0047FC0346FB60FB68002B02D0FB680C2BDE
:10360C0004D94FF462714B4802F0DCFC3B689B78A8
:10361C00184601F035FC0346FB60FB68002B02D01A
:10362C00FB681F2B04D940F28A31424802F0CAFCD5
:10363C003B681B78012B1CD03B681B78022B18D0E5
:10364C003B681B78032B14D03B681B78042B10D0E1
:10365C003B681B78052B0CD03B681B78062B08D0DD
:10366C003B681B78072B04D04FF46371314802F090
:10367C00A9FC7B68002B0FD03B68DB781A043B68F5
:10368C005B781B0213433A6892781A433B681B78A9
:10369C005B031343FB601BE03B68DB78184601F0CF
:1036AC00D3FB03461C043B685B78184601F0CCFB4B
:1036BC0003461B021C433B689B78184601F0C4FB75
:1036CC00034644EA03023B681B785B031343FB602D
:1036DC00194BCA225A62184B53225A62FFF7A6FCA6
:1036EC000346002B02D10023FB721BE0124AFB683D
:1036FC0023F07F4323F0C0035360FFF7CFFC0E4B46
:10370C009B6803F02003002B0AD1FFF7D5FC03467E
:10371C00002B02D10023FB7204E00123FB7201E0B9
:10372C000123FB72044BFF225A62FB7A18461437B2
:10373C00BD4690BDE0B300080028004080B483B0C3
:10374C0000AF78607B6801221A707B6801229A7046
:10375C007B6801225A707B680022DA7000BF0C373C
:10376C00BD4680BC704780B584B000AF78603960CE
:10377C000023FB607B68002B07D07B68012B04D0F7
:10378C0040F2E531234802F01DFC234B5B6823F02B
:10379C007F4323F0C003FB60FB681B0CDAB23B6871
:1037AC00DA70FB681B0ADBB203F01F03DAB23B686A
:1037BC005A70FB68DBB203F03F03DAB23B689A70D5
:1037CC00FB685B0BDBB203F00703DAB23B681A70E1
:1037DC007B68002B1AD13B68DB78184601F050FB54
:1037EC0003461A463B68DA703B685B78184601F072
:1037FC0047FB03461A463B685A703B689B78184651
:10380C0001F03EFB03461A463B689A7000BF103726
:10381C00BD4680BDE0B300080028004090B587B0DD
:10382C0000AFF860B9607A6000237B61FB68002B05
:10383C0007D0FB68012B04D040F22141A54802F0CF
:10384C00C1FBBB68B3F5807F08D0BB68B3F5007FC4
:10385C0004D040F222419F4802F0B4FB7B685B68C5
:10386C0003F07F33002B04D040F22341994802F03F
:10387C00A9FB7B689B68002B09D07B689B68B3F124
:10388C00804F04D040F22441924802F09BFBFB682D
:10389C00002B7AD1904B9B6803F04003002B1AD07D
:1038AC007B681B78002B03D07B681B780C2B04D90E
:1038BC0040F22A41874802F085FB7B68DB78002BBD
:1038CC0015D07B68DB78402B11D040F22B4181481E
:1038DC0002F078FB0BE07B680022DA707B681B78C7
:1038EC00172B04D94FF486617A4802F06BFB7B6886
:1038FC005B783B2B04D940F23241764802F062FBF4
:10390C007B689B783B2B04D940F23341714802F021
:10391C0059FB7B689B68002B0ED17B681B7B002BB3
:10392C0004D07B681B7B1F2B40F2B78040F23741E1
:10393C00684802F047FBB0E07B681B7B012B00F072
:10394C00AC807B681B7B022B00F0A7807B681B7B09
:10395C00032B00F0A2807B681B7B042B00F09D8066
:10396C007B681B7B052B00F098807B681B7B062BF0
:10397C0000F093807B681B7B072B00F08E8040F25D
:10398C003B41544802F01EFB87E0534B9B6803F00D
:10399C004003002B1FD07B681B78184601F070FA8F
:1039AC0003467B617B69002B02D07B690C2B04D90D
:1039BC0040F24341474802F005FB7B68DB78002B63
:1039CC0019D07B68DB78402B15D040F2444141483C
:1039DC0002F0F8FA0FE07B680022DA707B681B7843
:1039EC00184601F04DFA0346172B04D940F2494111
:1039FC00384802F0E7FA7B685B78184601F040FA29
:103A0C0003463B2B04D940F24C41324802F0DAFA1F
:103A1C007B689B78184601F033FA03463B2B04D99C
:103A2C0040F24D412B4802F0CDFA7B689B68002B8D
:103A3C0012D17B681B7B184601F022FA03467B618E
:103A4C007B69002B02D07B691F2B26D940F2524197
:103A5C00204802F0B7FA20E07B681B7B184601F087
:103A6C000FFA03467B617B69012B16D07B69022B15
:103A7C0013D07B69032B10D07B69042B0DD07B6991
:103A8C00052B0AD07B69062B07D07B69072B04D04A
:103A9C0040F257410F4802F095FAFB68002B1DD0FD
:103AAC007B681B781A047B685B781B0213437A686B
:103ABC0092781A437B68DB781B041A437B681B7B68
:103ACC001B061A437B689B681A437B685B6813432D
:103ADC007B612FE0E0B30008002800407B681B7876
:103AEC00184601F0B1F903461C047B685B78184654
:103AFC0001F0AAF903461B021C437B689B7818460D
:103B0C0001F0A2F9034644EA03027B68DB781B044C
:103B1C0042EA03047B681B7B184601F095F90346C7
:103B2C001B0644EA03027B689B681A437B685B684C
:103B3C0013437B610B4BCA225A620A4B53225A62C3
:103B4C00BB68B3F5807F03D1064A7B69D36102E081
:103B5C00044A7B691362034BFF225A6200BF1C3775
:103B6C00BD4690BD0028004080B483B000AF7860A3
:103B7C007B680022DA707B6800221A707B68002256
:103B8C005A707B6800229A707B6800229A607B686E
:103B9C0001221A737B6800225A6000BF0C37BD46A5
:103BAC0080BC704780B586B000AFF860B9607A60B1
:103BBC0000237B61FB68002B07D0FB68012B04D032
:103BCC0040F2AE413B4802F0FDF9BB68B3F5807F93
:103BDC0008D0BB68B3F5007F04D040F2AF41354844
:103BEC0002F0F0F9BB68B3F5807F03D1324BDB698F
:103BFC007B6102E0304B1B6A7B617B691B0CDBB287
:103C0C0003F03F03DAB27B681A707B691B0ADBB2E4
:103C1C0003F07F03DAB27B685A707B69DBB203F086
:103C2C007F03DAB27B689A707B691B0CDBB203F002
:103C3C004003DAB27B68DA707B691B0EDBB203F0EF
:103C4C003F03DAB27B681A737B6903F080427B68AE
:103C5C009A607B6903F080327B685A60FB68002BAA
:103C6C0023D17B681B78184601F00AF903461A46E3
:103C7C007B681A707B685B78184601F001F9034683
:103C8C001A467B685A707B689B78184601F0F8F8E6
:103C9C0003461A467B689A707B681B7B184601F0BA
:103CAC00EFF803461A467B681A7300BF1837BD46F7
:103CBC0080BD00BFE0B300080028004080B586B08E
:103CCC0000AF78600B46FB700023FB6000233B6168
:103CDC000023FB757B6803F44073002B04D140F286
:103CEC00E641254802F06EF9FB78002B07D0FB78F3
:103CFC00012B04D040F2E7411F4802F063F91F4B3F
:103D0C00CA225A621D4B53225A62FB78002B08D0F0
:103D1C001A491A4B9A687B6813438B600123FB7515
:103D2C0022E01649154B9A687B68DB4313408B6085
:103D3C00124BDA687B681B0A13403B61FB6801334A
:103D4C00FB60FB68B3F5005F02D03B69002BEFD042
:103D5C000A4BDA687B681B0A1340002B02D1002344
:103D6C00FB7501E00123FB75044BFF225A62FB7DBE
:103D7C0018461837BD4680BDE0B300080028004047
:103D8C0080B586B000AFF860B9607A6000237B61C3
:103D9C00FB68B3F5807F08D0FB68B3F5007F04D0D7
:103DAC0040F24251354802F00DF9BB68B3F5004FB3
:103DBC0004D340F24351314802F004F97B68002BE4
:103DCC0040D07B68B3F1807F3CD07B68B3F1007F3F
:103DDC0038D07B68B3F1407F34D07B68B3F1806F0F
:103DEC0030D07B68B3F1A06F2CD07B68B3F1C06F7F
:103DFC0028D07B68B3F1E06F24D07B68B3F1006FFF
:103E0C0020D07B68B3F1106F1CD07B68B3F1206FAE
:103E1C0018D07B68B3F1306F14D07B68B3F1406F6E
:103E2C0010D07B68B3F1506F0CD07B68B3F1606F2E
:103E3C0008D07B68B3F1706F04D040F244510F4846
:103E4C0002F0C0F80E4BCA225A620D4B53225A6232
:103E5C00BA687B6813437B61FB68B3F5807F03D141
:103E6C00074A7B69536402E0054A7B699364044BFF
:103E7C00FF225A6200BF1837BD4680BDE0B3000870
:103E8C000028004080B485B000AF78600023FB6050
:103E9C007B68B3F5807F05D1084B5B6CC3F30E03D5
:103EAC00FB6004E0054B9B6CC3F30E03FB60FB68EB
:103EBC0018461437BD4680BC704700BF0028004030
:103ECC0080B582B000AF78607B68002B13D07B6824
:103EDC00012B10D07B68022B0DD07B68032B0AD0F2
:103EEC007B68042B07D07B68062B04D040F29951D9
:103EFC000D4802F067F80D4BCA225A620B4B532245
:103F0C005A620A4A094B9B6823F0070393600749DE
:103F1C00064B9A687B6813438B60044BFF225A62F2
:103F2C0000BF0837BD4680BDE0B300080028004044
:103F3C0080B582B000AF78607B68B3F5803F04D366
:103F4C0040F2B451094802F03DF8094BCA225A62BA
:103F5C00074B53225A62064A7B685361044BFF227B
:103F6C005A6200BF0837BD4680BD00BFE0B30008F1
:103F7C000028004080B400AF034B5B699BB218462D
:103F8C00BD4680BC704700BF0028004080B586B09D
:103F9C0000AF0346FB710023FB6000233B61002351
:103FAC00FB75FB79002B07D0FB79012B04D040F279
:103FBC00D9511E4802F006F81D4BCA225A621C4BFE
:103FCC0053225A62FB79002B08D0194A184B9B6874
:103FDC0043F4806393600123FB751FE0144A144B78
:103FEC009B6823F480639360114BDB6803F004033C
:103FFC003B61FB680133FB60FB68B3F5005F02D0EB
:10400C003B69002BF0D00A4BDB6803F00403002B58
:10401C0002D10023FB7501E00123FB75044BFF2249
:10402C005A62FB7D18461837BD4680BDE0B30008C8
:10403C000028004080B582B000AF786039607B68A2
:10404C00B3F5003F08D07B68B3F5803F04D040F255
:10405C002161154801F0B6FF3B68002B08D03B6886
:10406C00B3F5802F04D040F222610F4801F0AAFF73
:10407C000E4BCA225A620D4B53225A620B4A0B4BFF
:10408C009B6823F4802393600848084B9A687968EE
:10409C003B680B4313438360044BFF225A6200BFFF
:1040AC000837BD4680BD00BFE0B3000800280040C3
:1040BC0080B400AF034B9B6803F480231846BD46C5
:1040CC0080BC70470028004080B582B000AF78609B
:1040DC0039607B68002B10D07B68B3F5001F0CD0C7
:1040EC007B68B3F5800F08D07B68B3F5C00F04D0A4
:1040FC0040F26261144801F065FF3B68002B08D068
:10410C003B68B3F5801F04D040F263610E4801F0A8
:10411C0059FF0E4BCA225A620C4B53225A620B4A5D
:10412C000A4B9B6823F4E00393600848074B9A689A
:10413C0079683B680B4313438360044BFF225A623C
:10414C0000BF0837BD4680BDE0B300080028004022
:10415C0080B584B000AF786039600023FB737B6856
:10416C00002B07D07B68802B04D040F29761154858
:10417C0001F028FF3B681F2B04D94FF4D361114881
:10418C0001F020FF104BCA225A620F4B53225A6285
:10419C00FEF74CFF0346002B02D10023FB7308E013
:1041AC0009497A683B6813438B61FEF777FF01235B
:1041BC00FB73054BFF225A62FB7B18461037BD463A
:1041CC0080BD00BFE0B300080028004080B584B07B
:1041DC0000AF0346FB710023FB73FB79002B07D068
:1041EC00FB79012B04D04FF4D861164801F0EAFE9C
:1041FC00154BCA225A62144B53225A62FEF716FF11
:10420C000346002B02D10023FB7313E0FB79002B38
:10421C0006D00D4A0C4B9B6843F08003936005E07D
:10422C00094A094B9B6823F080039360FEF736FF25
:10423C000123FB73044BFF225A62FB7B1846103799
:10424C00BD4680BDE0B300080028004080B582B0B8
:10425C0000AF0346FB71FB79002B07D0FB79012BD8
:10426C0004D040F2ED61104801F0ACFE0F4BCA22B5
:10427C005A620E4B53225A62FB79002B06D00B4A22
:10428C000A4B9B6843F40003936005E0074A074B15
:10429C009B6823F400039360044BFF225A6200BF17
:1042AC000837BD4680BD00BFE0B3000800280040C1
:1042BC0080B582B000AF78607B68002B08D07B683B
:1042CC00B3F5002F04D040F20D710E4801F07AFEC8
:1042DC000D4BCA225A620C4B53225A620A4A0A4BA1
:1042EC009B6823F4002393600749074B9A687B680B
:1042FC0013438B60044BFF225A6200BF0837BD4644
:10430C0080BD00BFE0B300080028004080B586B037
:10431C0000AFF860B9607A600023FB7500233B6145
:10432C00FB68002B0CD0FB68B3F5005F08D0FB6872
:10433C00B3F5804F04D040F23671264801F042FEAE
:10434C00BB68B3F5004F07D0BB68002B04D040F21C
:10435C003771204801F036FE7B68B3F5007F04D33B
:10436C004FF4E7611B4801F02DFE1B4BCA225A6229
:10437C00194B53225A62184BDB6803F48033002B21
:10438C000DD002E03B6901333B61134BDB6803F456
:10439C008033002B03D03B69B3F5805FF2D10E4B19
:1043AC00DB6803F48033002B09D10B49FA68BB6836
:1043BC001A437B681343CB630123FB7501E0002395
:1043CC00FB75054BFF225A62FB7D18461837BD461C
:1043DC0080BD00BFE0B300080028004080B584B069
:1043EC0000AF78600B46FB700023FB607B68002BF2
:1043FC0007D07B68082B04D040F27F71194801F07C
:10440C00E1FDFB78002B07D0FB78012B04D04FF497
:10441C00F061144801F0D6FD134B9B6823F4006344
:10442C0023F00803FB60FB78002B06D07A68FB684E
:10443C00134343F40063FB6003E0FA687B681343A7
:10444C00FB60094BCA225A62074B53225A62064A36
:10445C00FB689360044BFF225A6200BF1037BD46C5
:10446C0080BD00BFE0B300080028004080B586B0D6
:10447C0000AFF860B9607A6000237B6100233B6178
:10448C00FB68002B07D0FB68012B04D040F2AC7109
:10449C00434801F097FD434B1B6B03F07F3323F034
:1044AC00FE437B613F4B5B6B23F07F4323F0C003E8
:1044BC003B617B691B0CDBB203F03F03DAB2BB68D8
:1044CC001A707B691B0ADBB203F07F03DAB2BB689C
:1044DC005A707B69DBB203F07F03DAB2BB689A7067
:1044EC007B691B0CDBB203F04003DAB2BB68DA70F9
:1044FC007B680022DA703B691B0ADBB203F01F03F6
:10450C00DAB27B685A703B69DBB203F03F03DAB274
:10451C007B689A703B695B0BDBB203F00703DAB282
:10452C007B681A70FB68002B35D1BB681B7818466A
:10453C0000F0A6FC03461A46BB681A70BB685B7891
:10454C00184600F09DFC03461A46BB685A70BB68BF
:10455C009B78184600F094FC03461A46BB689A7088
:10456C007B685B78184600F08BFC03461A467B6828
:10457C005A707B689B78184600F082FC03461A46FA
:10458C007B689A707B681B78184600F079FC0346B0
:10459C001A467B681A7000BF1837BD4680BD00BF35
:1045AC00E0B300080028004080B400AF024B9B6BC6
:1045BC001846BD4680BC70470028004080B582B0CC
:1045CC0000AF786039607B6823F02903002B02D19F
:1045DC007B68002B04D140F2FB71154801F0F2FC12
:1045EC003B68002B0DD03B68012B0AD03B68002B9D
:1045FC0007D03B68012B04D040F2FC710C4801F051
:10460C00E1FC3B68002B08D10A490A4B1A6C7B6809
:10461C005B00DB4313400B6406E00649054B1A6C48
:10462C007B685B0013430B6400BF0837BD4680BD3D
:10463C00E0B300080028004080B582B000AF78607D
:10464C000B46FB707B6823F02903002B02D17B689F
:10465C00002B04D140F61901114801F0B3FCFB7892
:10466C00002B07D0FB78012B04D040F61A010C4824
:10467C0001F0A8FCFB78002B06D00A49094B1A6CF8
:10468C007B6813430B6406E00649064B1A6C7B6887
:10469C00DB4313400B6400BF0837BD4680BD00BF31
:1046AC00E0B300080028004080B582B000AF78600D
:1046BC007B68002B10D07B68B3F5006F0CD07B6847
:1046CC00B3F5805F08D07B68B3F5C05F04D040F6CB
:1046DC003801094801F076FC084A084B1B6C23F49E
:1046EC00C05313640549054B1A6C7B6813430B6468
:1046FC0000BF0837BD4680BDE0B30008002800406D
:10470C0080B582B000AF78607B68002B20D07B68CE
:10471C00B3F5807F1CD07B68B3F5007F18D07B6825
:10472C00B3F5407F14D07B68B3F5806F10D07B68F5
:10473C00B3F5A06F0CD07B68B3F5C06F08D07B6865
:10474C00B3F5E06F04D040F65A01094801F03AFC89
:10475C00084A084B1B6C23F4E06313640549054BB2
:10476C001A6C7B6813430B6400BF0837BD4680BDD1
:10477C00E0B300080028004080B582B000AF78603C
:10478C007B68002B10D07B68B3F5005F0CD07B6886
:10479C00B3F5804F08D07B68B3F5C04F04D040F61A
:1047AC007101094801F00EFC084A084B1B6C23F4FC
:1047BC00C04313640549054B1A6C7B6813430B64A7
:1047CC0000BF0837BD4680BDE0B30008002800409C
:1047DC0080B582B000AF0346FB71FB79002B07D08C
:1047EC00FB79012B04D040F685010B4801F0EAFB64
:1047FC00FB79002B06D0094A084B1B6C43F0800355
:10480C00136405E0054A054B1B6C23F0800313640D
:10481C0000BF0837BD4680BDE0B30008002800404B
:10482C0080B582B000AF0346FB71FB79002B07D03B
:10483C00FB79012B04D040F69C010B4801F0C2FB24
:10484C00FB79002B06D0094A084B1B6C23F4004360
:10485C00136405E0054A054B1B6C43F400431364D9
:10486C0000BF0837BD4680BDE0B3000800280040FB
:10487C0080B584B000AF786039600023FB607B6842
:10488C00002B61D07B68012B5ED07B68022B5BD048
:10489C007B68032B58D07B68042B55D07B68052B89
:1048AC0052D07B68062B4FD07B68072B4CD07B6893
:1048BC00082B49D07B68092B46D07B680A2B43D048
:1048CC007B680B2B40D07B680C2B3DD07B680D2B71
:1048DC003AD07B680E2B37D07B680F2B34D07B689B
:1048EC00102B31D07B68112B2ED07B68122B2BD048
:1048FC007B68132B28D07B68142B25D07B68152B59
:10490C0022D07B68162B1FD07B68172B1CD07B68A2
:10491C00182B19D07B68192B16D07B681A2B13D047
:10492C007B681B2B10D07B681C2B0DD07B681D2B40
:10493C000AD07B681E2B07D07B681F2B04D040F657
:10494C00C701094801F03EFB084BFB607B689A00ED
:10495C00FB681344FB60FB681A463B68136000BF9E
:10496C001037BD4680BD00BFE0B3000850280040A2
:10497C0080B584B000AF78600023FB607B68002BAF
:10498C0061D07B68012B5ED07B68022B5BD07B688F
:10499C00032B58D07B68042B55D07B68052B52D049
:1049AC007B68062B4FD07B68072B4CD07B68082B81
:1049BC0049D07B68092B46D07B680A2B43D07B6897
:1049CC000B2B40D07B680C2B3DD07B680D2B3AD049
:1049DC007B680E2B37D07B680F2B34D07B68102B69
:1049EC0031D07B68112B2ED07B68122B2BD07B689F
:1049FC00132B28D07B68142B25D07B68152B22D049
:104A0C007B68162B1FD07B68172B1CD07B68182B50
:104A1C0019D07B68192B16D07B681A2B13D07B68A6
:104A2C001B2B10D07B681C2B0DD07B681D2B0AD048
:104A3C007B681E2B07D07B681F2B04D040F6DC0153
:104A4C00074801F0BFFA074BFB607B689A00FB68D4
:104A5C001344FB60FB681B6818461037BD4680BDCD
:104A6C00E0B300085028004080B582B000AF7860F9
:104A7C007B68002B08D07B68B3F5802F04D040F600
:104A8C000211094801F09EFA084A084B1B6C23F4EA
:104A9C00802313640549054B1A6C7B6813430B6424
:104AAC0000BF0837BD4680BDE0B3000800280040B9
:104ABC0080B584B000AF786039600023FB730023AD
:104ACC00BB607B68002B08D07B68B3F1004F04D02F
:104ADC0040F62B11274801F075FA3B68B3F5004FEF
:104AEC0004D340F62C11234801F06CFA224BCA2255
:104AFC005A62214B53225A621F4BDB6803F00803A6
:104B0C00002B0DD002E0BB680133BB601A4BDB6895
:104B1C0003F00803002B03D0BB68B3F5005FF2D1A0
:104B2C00154BDB6803F00803002B18D1124B9B6864
:104B3C0003F01003002B0FD10F493A687B68134325
:104B4C00CB62FEF7B9FA0346002B02D10023FB73AC
:104B5C0007E00123FB7304E00023FB7301E0002357
:104B6C00FB73054BFF225A62FB7B18461037BD4680
:104B7C0080BD00BFE0B300080028004080B582B0C3
:104B8C0000AF78600B46FB707B68002B06D07B680F
:104B9C0023F4704323F00403002B04D04FF41A6168
:104BAC00204801F00FFAFB78002B07D0FB78012B83
:104BBC0004D040F6A1111B4801F004FA1A4BCA228A
:104BCC005A62194B53225A62FB78002B10D01649AB
:104BDC00154B9A687B6823F0040313438B601249CE
:104BEC00114B1A6C7B6803F0040313430B6411E044
:104BFC000D490D4B9A687B6823F00403DB4313408B
:104C0C008B600949084B1A6C7B6803F00403DB4387
:104C1C0013400B64044BFF225A6200BF0837BD4699
:104C2C0080BD00BFE0B300080028004080B584B010
:104C3C0000AF78600023FB730023BB607B68B3F587
:104C4C00805F39D07B68B3F5006F35D07B68B3F5E6
:104C5C00806F31D07B68B3F5007F2DD07B68B3F5C6
:104C6C00807F29D07B68402B26D07B68202B23D0DB
:104C7C007B68042B20D07B68022B1DD07B68012B1A
:104C8C001AD07B68B3F5005F16D07B68B3F5804F04
:104C9C0012D07B68B3F5004F0ED07B68B3F5803F24
:104CAC000AD07B68082B07D07B68102B04D040F609
:104CBC00D5110B4801F086F90A4BDA680A4B134000
:104CCC00BB60BA687B681340002B02D00123FB73D6
:104CDC0001E00023FB73FB7B18461037BD4680BDFB
:104CEC00E0B30008002800407FFF010080B582B0CF
:104CFC0000AF78607B68002B06D07B6823F47F4381
:104D0C0023F02003002B04D040F6F811094801F0E1
:104D1C0059F909497A68094B134043F08003DA4387
:104D2C00054BDB6803F080031343CB6000BF0837EF
:104D3C00BD4680BDE0B30008002800407FFF0100A5
:104D4C0080B586B000AF78600023FB7500233B6113
:104D5C000023FB607B68B3F5004F1CD07B68B3F578
:104D6C00804F18D07B68B3F5005F14D07B68B3F527
:104D7C00805F10D07B68B3F5003F0CD07B68B3F537
:104D8C00802F08D07B68B3F5002F04D040F611219A
:104D9C00164801F017F9164B1B6C03F004033B612A
:104DAC00134B9A687B681A407B689B0C796821FAD4
:104DBC0003F3D90B3B690B401343FB600C4BDA68D4
:104DCC007B681B0913403B61FB68002B06D03B69D9
:104DDC009BB2002B02D00123FB7501E00023FB7575
:104DEC00FB7D18461837BD4680BD00BFE0B30008F8
:104DFC000028004080B584B000AF78600023FB60D1
:104E0C007B68002B04D07B6823F46F23002B04D029
:104E1C0040F63A210A4801F0D5F87B681B09FB6083
:104E2C000849FB689BB243F08003DA43054BDB680F
:104E3C0003F080031343CB6000BF1037BD4680BD29
:104E4C00E0B300080028004080B485B000AF0346F2
:104E5C00FB710023FB7305E0FB7B0133FB73FB79D8
:104E6C000A3BFB71FB79092BF6D8FB7B1B01DAB2F1
:104E7C00FB791343DBB218461437BD4680BC704730
:104E8C0080B485B000AF0346FB710023FB73FB7944
:104E9C001B09DBB21A46920013445B00FB73FB79CF
:104EAC0003F00F03DAB2FB7B1344DBB21846143762
:104EBC00BD4680BC704700BF80B500AF154A154B8E
:104ECC001B6843F4807313601249124B9A68124B9F
:104EDC0013408B600F4A0F4B1B6823F0885323F051
:104EEC00011313600B4A0B4B1B6823F480231360D4
:104EFC00084A084B9B6823F47D039360054B002202
:104F0C00DA6000F0B9F8054B4FF000629A6000BF10
:104F1C0080BD00BF003802400CC0FF8800ED00E0EF
:104F2C0080B487B000AF00237B6100233B6100237A
:104F3C00FB600023BB6000237B60494B9B6803F044
:104F4C000C037B617B690C2B64D801A252F823F013
:104F5C00914F0008215000082150000821500008F2
:104F6C00B14F0008215000082150000821500008C2
:104F7C00B94F0008215000082150000821500008AA
:104F8C00C14F0008364B5B685B0B03F007037B607B
:104F9C007B6801334FF4004202FA03F31A46314B9B
:104FAC001A6047E02F4B304A1A6043E02D4B2F4AD2
:104FBC001A603FE02A4B9B6803F470133B61284B4B
:104FCC009B6803F44003FB603B699B0C284AD35C51
:104FDC00DBB23B61FB689B0D0133FB60204B9B6894
:104FEC0003F48033BB60BB68002B09D13B691E4ABC
:104FFC0002FB03F2FB68B2FBF3F31A4A136019E0ED
:10500C003B691A4A02FB03F2FB68B2FBF3F3154A45
:10501C0013600FE0124B5B685B0B03F007037B60C4
:10502C007B6801334FF4004202FA03F31A460D4B2E
:10503C001A6000BF0A4B9B681B0903F00F030D4A53
:10504C00D35CDBB27B61074B1A687B6922FA03F3F2
:10505C00044A136000BF1C37BD4680BC704700BFBC
:10506C00003802401C0000200024F40000127A00DA
:10507C00200000202C00002080B483B000AF00235F
:10508C007B6000233B60414A404B1B6843F00103AB
:10509C0013603E4B1B6803F002033B603B68002B24
:1050AC0003D17B68B3F5A04FF3D1384B1B6803F0E9
:1050BC000203002B02D001233B6001E000233B6084
:1050CC003B68012B5CD1324A314B1B6823F0010346
:1050DC0013602F4A2E4B1B6823F0020313602C4ADB
:1050EC002B4B1B6823F004031360284A274B5B6A85
:1050FC0043F080535362274B4FF480521A6000BF29
:10510C00244B5B6803F01003002BF9D11F4A1F4B93
:10511C009B6843F0800393601C4A1C4B9B68936014
:10512C001A4A1A4B9B689360184A184B9B6823F4D5
:10513C007D039360154A154B9B6843F40003936001
:10514C00124A124B1B6843F08073136000BF0F4B65
:10515C001B6803F00073002BF9D00C4A0B4B9B68B7
:10516C0023F003039360094A084B9B6843F0030345
:10517C00936000BF054B9B6803F00C030C2BF9D11B
:10518C0000BF0C37BD4680BC704700BF00380240E2
:10519C00003C02400070004098B500AF40F2255131
:1051AC00394802F063F80346002B33D0374B1B7899
:1051BC00DBB2FF2B0CBF01230023DAB2344B1B787C
:1051CC00DBB2002B0CBF01230023DBB21343DBB299
:1051DC00002B05D02E4800F0BBF92C4B00221A7086
:1051EC0040F22551284802F00DF9284B1B78DBB210
:1051FC001C46254801F0CEFA0346DAB2244B1A5568
:10520C00224B1B78DBB20133DAB2204B1A70214BE4
:10521C0001221A7040F225311B4802F027F8034690
:10522C00002B2ED0194B1B78DBB2FF2B0CBF0123AC
:10523C000023DAB2164B1B78DBB2002B0CBF012318
:10524C000023DBB21343DBB2002B05D0104800F077
:10525C007FF90E4B00221A700C4B1B78DBB21C46EC
:10526C00094801F097FA0346DAB2094B1A55074B75
:10527C001B78DBB20133DAB2044B1A70054B0122F6
:10528C001A7000BF98BD00BF00380140D005002047
:10529C00D4050020C505002098B500AF40F225517B
:1052AC00384801F0E3FF0346002B30D0364B1B7817
:1052BC00DBB2FF2B0CBF01230023DAB2334B1B787C
:1052CC00DBB2002B0CBF01230023DBB21343DBB298
:1052DC00002B05D02D4800F03BF92B4B00221A7007
:1052EC0040F22551274802F08DF8274B1B78DBB292
:1052FC001C46244801F04EFA0346DAB2234B1A55E9
:10530C00214B1B78DBB20133DAB21F4B1A7040F21F
:10531C0025311C4801F0AAFF0346002B30D01A4B54
:10532C001B78DBB2FF2B0CBF01230023DAB2174B27
:10533C001B78DBB2002B0CBF01230023DBB2134321
:10534C00DBB2002B05D0114800F002F90E4B002205
:10535C001A7040F225510B4802F054F80A4B1B7896
:10536C00DBB21C46074801F015FA0346DAB2074BCC
:10537C001A55054B1B78DBB20133DAB2024B1A70AB
:10538C0000BF98BD00440040C4050020C4040020A8
:10539C0080B58AB000AF7860022387F824300023F0
:1053AC0087F82630002387F82730032387F8253029
:1053BC000023BB820023FB8200233B830023BB839F
:1053CC000C237B837B683C4A93422AD10121012028
:1053DC00FCF71EFA07220921384802F02DFF07229C
:1053EC000A21364802F028FF4FF400733B6207F1A4
:1053FC0020031946314802F02DFA4FF480633B62CA
:10540C0007F1200319462D4802F024FA01214FF42C
:10541C008040FCF737FA4FF461433B6125233B7323
:10542C002BE07B68264A934227D101210120FCF70F
:10543C00EFF907220221214802F0FEFE0722032188
:10544C001E4802F0F9FE04233B6207F120031946C3
:10545C001A4802F0FFF908233B6207F120031946B2
:10546C00164802F0F7F901214FF40030FCF744FA2A
:10547C004FF461433B6126233B7307F1100319463C
:10548C00786800F01BFE00237B730023BB730123A1
:10549C00FB7307F10C031846FDF7AEFB012178688E
:1054AC0001F00DF8012240F22551786801F056FD0B
:1054BC0000BF2837BD4680BD0038014000000240C7
:1054CC000044004080B483B000AF03463960FB71E8
:1054DC0000BF3B681B889BB203F04003002BF8D045
:1054EC00FB799AB23B689A8000BF0C37BD4680BCF2
:1054FC00704780B582B000AF7860396008E07B6897
:10550C001B7839681846FFF7DDFF7B6801337B6039
:10551C007B681B78002BF2D100BF0837BD4680BDDD
:10552C0080B584B000AF786039600023FB733968B4
:10553C00786805F03FFB0346002B02D00123FB7378
:10554C0001E00023FB73FB7B18461037BD4680BD82
:10555C0080B485B000AF78600023FB8107E0FB8945
:10556C007A68134400221A70FB890133FB81FB8992
:10557C007A6813441B78DBB2002BF0D100BF1437D0
:10558C00BD4680BC704700BF80B485B000AF0346F9
:10559C003960FB800123BB600023FB7320E0FB7BA5
:1055AC003A68D118FB881248BA68B0FBF2F2B3FB28
:1055BC00F2F002FB00F29A1A42F21070BB68B0FBD8
:1055CC00F3F3B2FBF3F3DBB23033DBB20B70BA683C
:1055DC0013469B0013445B00BB60FB7B0133FB73E6
:1055EC00FB7B042BDBD900BF1437BD4680BC704756
:1055FC00A086010080B485B000AF03463960FB8003
:10560C00B7F90630002B05DA3B682D221A70FB889F
:10561C005B42FB80FB881B099BB2FB73FB7B632B00
:10562C000AD9FB7B344AA2FB03235B09DBB2303380
:10563C00DAB23B681A7002E03B6830221A703B68A1
:10564C00581CFB7B2D4AA2FB0323DB08DAB22B4B45
:10565C00A3FB0213D9080B469B000B445B00D31A27
:10566C00DBB23033DBB203703B68981CFA7B234B04
:10567C00A3FB0213D9080B469B000B445B00D31A07
:10568C00DBB23033DBB20370FB88BB60BB6803F06A
:10569C000F03BB60BB6840F2712202FB03F3BB60DB
:1056AC003B6803332E221A703B680433BA681449E2
:1056BC00A1FB02129209D2B23032D2B21A703B68FC
:1056CC00581DBB680C4AA2FB032359090B4BA3FBC7
:1056DC000123DA0813469B0013445B00CA1AD3B2A9
:1056EC003033DBB203703B68063300221A7000BF04
:1056FC001437BD4680BC70471F85EB51CDCCCCCC4C
:10570C00D34D621080B487B000AFF860B960134617
:10571C00FB7100237B611FE0FB685A1CFA601B784D
:10572C00FB74FB7C1B09BB74FB7C03F00F037B74C9
:10573C007B695A1C7A611A46BB681344BA7C0C49C3
:10574C008A5C1A707B695A1C7A611A46BB681344CE
:10575C007A7C07498A5C1A70FB795A1EFA71002B05
:10576C00DAD17B6918461C37BD4680BC704700BF38
:10577C003C00002090B587B000AFF860B9607A604B
:10578C00B86805F091F80346BB75F86805F08CF81D
:10579C000346DCB2786805F087F80346DBB2E31AFF
:1057AC007B75BB7DFB7560E0FB7DFA6813441B7851
:1057BC00462B8CBF01230023DAB2FB7DF9680B4426
:1057CC001B78602B94BF01230023DBB21340DBB2A8
:1057DC001946FB7DFA6813441B782F2B94BF0123C9
:1057EC000023DBB20B43002B01D0082342E0FB7DEE
:1057FC00FA6813441B78392B8CBF01230023DAB2CF
:10580C00FB7DF9680B441B78402B94BF01230023CC
:10581C00DBB21340DBB2002B01D008232AE0FB7D66
:10582C00FA6813441B78602B94BF01230023DAB26F
:10583C00FB7DF9680B441B78462B8CBF012300239E
:10584C00DBB21340DBB21946FB7DFA6813441B78BC
:10585C00662B8CBF01230023DBB20B43002B01D042
:10586C00082307E0FB7D0133FB75FA7D7B7D9A42B3
:10587C009AD3092318461C37BD4690BD80B500AF9E
:10588C00184B194A1A60174B1B681B68174A93422E
:10589C001ED8144B1B681B68002B07D1144B154AE0
:1058AC001A601449104802F0D7FD18E00D4B1B6824
:1058BC001B680A331A46104B1A600F4B1B680C4AB4
:1058CC0013600D4B1B681946074802F0C5FD06E036
:1058DC00074B084A1A600749034802F0BDFD00BF98
:1058EC0080BD00BFC004002064000808330A08080B
:1058FC00BC04002070000808CC05002080B582B0E4
:10590C0000AF7860FFF7BAFF274B1B68A72118463A
:10591C0002F0E4FD244B1B6801331A467B685B786C
:10592C001946104602F0DAFD1F4B1B6802331A466B
:10593C007B689B781946104602F0D0FD1A4B1B6809
:10594C0003331A467B68DB781946104602F0C6FD15
:10595C00154B1B6804331A467B681B791946104695
:10596C0002F0BCFD104B1B6805331A467B685B7953
:10597C001946104602F0B2FD0B4B1B6806331A4653
:10598C007B689B791946104602F0A8FD064B1B68F4
:10599C0008331A467B681B891946104602F07CFDB9
:1059AC0000BF0837BD4680BDBC04002080B483B066
:1059BC0000AF0023BB71104B104A1A600023FB711F
:1059CC0010E00D4B1B681B78A72B03D1BB7901335F
:1059DC00BB7101E0BB7909E0094A074B1A60FB79FE
:1059EC000133FB71FB79F92BEBD9BB7918460C37DA
:1059FC00BD4680BC704700BFBC0400207000080886
:105A0C00E404002080B500AF054B064A1A60044B35
:105A1C001B680021184602F01FFD00BF80BD00BFAF
:105A2C00C00400206400080880B582B000AFFA23DF
:105A3C00FB71254B254A1A60234B1B680021184625
:105A4C0002F04CFD204B1B6801330021184602F07C
:105A5C0045FD1D4B1B6802330021184602F03EFD2C
:105A6C00194B1B6803330021184602F037FD164B07
:105A7C001B6804330021184602F030FD124B1B68E2
:105A8C0005330021184602F029FD0F4B1B68063325
:105A9C000021184602F022FD0B4B1B680833002135
:105AAC00184602F0F9FC0A4A074B1A60FB795A1E99
:105ABC00FA71002BC0D10549064802F0CDFC00BF9D
:105ACC000837BD4680BD00BFBC040020700008082C
